:100000000C94FB070C9423080C9423080C942308ED
:100010000C9423080C9423080C9423080C942308B4
:100020000C9423080C9423080C9423080C94752D2D
:100030000C9423080C9423080C9423080C94230894
:100040000C949F310C9423080C9423080C942308DF
:100050000C9423080C9423080C9423080C94230874
:100060000C94F02F0C942308110C180C1F0CF00C9E
:10007000F00CF00CF00C260C3B0C500C570C5E0CEA
:10008000650C6C0C730C7A0CF00C810C960CAB0CA0
:10009000B20CB90CC00CC70CCE0CD50CF00CDC0C9F
:1000A000EA0CE30C401E000000000000000000F815
:1000B000000673000000030406195C800000040CB5
:1000C0003A26530000000873A6484C000000088C34
:1000D000B44EA80000000451949EB40000000252E7
:1000E00016FCEE000000025A3E70E70000000CCB48
:1000F000380000000000318F0007FFFF0000470CB0
:1001000007F8000200003E038807FCFCFC00183CD6
:10011000CFF80500430007C30007757F4080380C07
:1001200001F555414C4040300615555F4A404C4062
:10013000686555414C40744EA985555F40804472B6
:10014000AA05D55F4480040EAA7415414A40087080
:10015000AA95D57F49200440ABB5577F58F004409D
:10016000A4277300F0700440A3E33001E0200320D3
:10017000A0E00000C00003E0E0000000000003E099
:10018000C0000000000000E00000000000000000CF
:10019000000000000000536C6176652064697363A1
:1001A0006F6E6E65637465640057726F6E6720735F
:1001B0006C61766520646174610031206D617374D7
:1001C0006572206D617800536C6176652070617591
:1001D00073656400402800000000C00040800000FB
:1001E0000000A000E08000000000CCE646C0000057
:1001F0000000A8EA48A018000000AEAE46A03C00EF
:100200000000000000007A000000E0000000FC0098
:100210000000E0000000F8000000ACCA0000B400DC
:100220000000A8AA00004EF00000AEAE00001CF2D4
:100230000000000000000AF4000000000000012897
:1002400000000000000000B000000000000000609E
:100250000000000000000020000003F0000000206B
:10026000000003D000000020000003D00000005078
:100270000000012000000090000003C0000001B059
:100280000000050000000FFFFC0005000000080052
:1002900004000500000009010600050000000B0134
:1002A000060002800000091B860002800000091180
:1002B000060002C000000BB1060FFFFC00000800A2
:1002C0000608000400000BA0061B808400000BA0A1
:1002D0000618808400000A20061BB1840000080074
:1002E000061A2A8400000800061BA98400000800E2
:1002F0000618000400000800061BB00400000800F7
:10030000061B900400000800061A180400000800EC
:10031000061800040000402800000000C0004080D3
:1003200000000000A000E08000000000CCE646C015
:1003300000000000A8EA48A018000000AEAE46A0E9
:100340003C000000000000007A000000E000000017
:10035000FC000000E0000000F8000000ACCA000053
:10036000B4000000A8AA00004EF00000AEAE0000ED
:100370001CF20000000000000AF400000000000071
:10038000012800000000000000B000000000000094
:1003900000600000000000000020000003F00000EA
:1003A0000020000003D000000020000003D0000067
:1003B00000500000012000000090000003C0000079
:1003C00001B00000050000000FFFFC000500000068
:1003D00008000400050000000901060005000000F7
:1003E0000B01060002800000091B8600028000004D
:1003F0000911060002C000000BB1060FFFFC00004F
:1004000008000608000400000BB0061B80840000F2
:100410000B900618808400000A18061BB1840000A7
:100420000800061A2A8400000800061BA9840000A0
:1004300008000618000400000800061BA0040000C5
:100440000800061BA00400000800061A2004000093
:100450000800061800040000400564A6C4EA84EE03
:100460004A608AA8AA4A8A44AA808AE8CE4A8E4468
:10047000AE408AEAAA4A8A44AE2064A6AA4EEA4E50
:100480004AC0180564CCA08AAAA04ACC402AAA4037
:10049000C4AA401000583000000000000000000016
:1004A00000006207FFFFFC03FFFFFE0CE0560404A0
:1004B0000404020202020A2062040404040202028A
:1004C000020CE0420404040402020202088047070E
:1004D000FFFFFC03FFFFFE08E0000000000000003B
:1004E00000000000318C0000000000000318C04A2A
:1004F0005200000000000004A5204A520000000045
:10050000000004A520318C0000000000000318C08A
:1005100000000000000000000000000000000000DB
:1005200000000000000000000000000000000000CB
:1005300000000000000000000000000000000000BB
:1005400000000000000000000000000000000000AB
:10055000000000000000000000000000000000009B
:10056000000000000000000000000000000000008B
:10057000000000000000000000000000000000007B
:10058000000000000000000000000000000000006B
:10059000000000000000000000000000000000005B
:1005A000000000000000000000000000000000004B
:1005B000000000000000000000000000000000003B
:1005C000000000000000000000000000000000002B
:1005D000000000000000000000000000000000001B
:1005E000000000000000000000000000000000000B
:1005F00000000000000000000000000000000000FB
:1006000000000000000000000000000000000000EA
:1006100000000000000000000000000000000000DA
:1006200000000000000000000000000000000000CA
:1006300000000000000000000000000000000000BA
:1006400000000000000000000000000000000000AA
:10065000000000000000000000000000000000009A
:100660000000000000FFFFFFFFFFFFFFFFFFFFF0A4
:10067000800000000000000000001080000000006A
:1006800000000000001080000000000000000000DA
:1006900010D555555555555555555550FFFFFFFF2C
:1006A000FFFFFFFFFFFFF0280CF03007EFC088507E
:1006B00005A840B49005AB40B55005AB40B5D0059A
:1006C000AB408DD0046B40B85005AB40B05005AB8B
:1006D00040A1D805AB40A10805A840E1F807EFC04C
:1006E000E1F807EFC0280CF1F807EFC0890805A86A
:1006F00040B5E805AB40B5E805AB40B5E805AB4013
:100700008D08046B40B97805AB40B17805AB40A1CA
:100710007805AB40A10805A840E1F807EFC0E1F873
:1007200007EFC0300CFBEFDF807EFC8A2850805A38
:1007300084DB6857805AB4DB6857805AB4514B57F2
:10074000805A84514B50805ABC514B57805ABC51EF
:100750004B57805AA0514B57805AA0522B50804281
:10076000A073EFDF807EE073EFDF807EE05E0C6CD5
:100770000C080C7878782070A8EC202050486C0881
:100780000C007878782070A8EC2050486C080C7821
:10079000787870A8EC202024DC8000080C78787829
:1007A0002070A8EC2020202030100C7800780078F1
:1007B0000030007C00A000E01020F03F00400080EE
:1007C00000C000100C78007800780020007FF0A0B6
:1007D00000E00020002000500048006C00100C7861
:1007E000007800780020006000FF802C00200020AE
:1007F00000500048006C000806787820FC486C1017
:1008000006780078002000FC00480047C0080C78FB
:100810007878242478A0A038448400100C780078DC
:10082000007800240024007800A000A0003FE040F1
:1008300000800000001004E000E000EF80FC700881
:100840000D00F0F0F0487840784840A0A0F008068D
:10085000F87CCCCC7CF8080638C4B4B4C438080C96
:100860007858782070A8EC202050486C080C00586C
:1008700078782070A8EC2050486C080C7858787074
:10088000A8EC202024DC8000080C7858782070A880
:10089000EC2020202030100C780058007800300028
:1008A0007C00A000E01020F03F0040008000C0006D
:1008B000100C78005800780020007FF0A000E000C5
:1008C00020002000500048006C00100C78005800F8
:1008D000780020006000FF802C00200020005000E5
:1008E00048006C000806785820FC486C1006780018
:1008F00058002000FC00480047C0080C78587824B5
:100900002478A0A038448400100C780058007800A7
:10091000240024007800A000A0003FE040008000F8
:1009200000001004E000E000AF80FC70200CFDF738
:10093000EFDF85142B51BDB5EB5BBDB5EB5BBCA503
:100940000B4A84A5E84ABCA52B4ABCA5AB4AA0A586
:10095000AB4AA1142B4AE1F7EFCEE1F7EFCE080C3A
:10096000182848A8E8E82828EC84FCFC080CFC843B
:10097000F4F4F484BCBCBC84FCFC080CFC84F4F4EB
:10098000F484F4F4F484FCFC3028FFFFFFFFFFF054
:10099000800000000010800000000010A98001C04D
:1009A0000010AA0007E00010A9001FF00010A880A6
:1009B0007FD800109320FFC800108000FFC80010EF
:1009C0009B00FFC80010A2817FF00010A3017F8070
:1009D0000010AA813F8000109B011F0000108000C2
:1009E000E3600010800003E0001080000FF00010B2
:1009F00080000FF1E010800007E37810800007030B
:100A0000EC10800000031C10800000639CD080006C
:100A10000073FDD080000039FB9081F0001CF710BE
:100A2000807C000ECE1081F00007FC1080E00003F7
:100A3000F01080600001C010804000018010800034
:100A4000000180109FFFC0018010A00020018010D5
:100A5000A1FC20030010A5E4200F8010ADF5A01E1E
:100A6000C010A5FC2038C010A1FC2070C010FFFFF2
:100A7000FFFFFFF0FFFFFFFFFFF03028FFFFFFFF4A
:100A8000FFF08000000000108000000000108000D7
:100A900001C00010800007E0001080001FF000106F
:100AA00080007FD800108000FFC800108000FFC8C1
:100AB00000108000FFC8001087C17FF0001081F196
:100AC0007F80001087C13F80001083811F000010CD
:100AD0008180E3600010810003E0001080000FF0CF
:100AE000001083C00FF1E01087E007E378108DD08D
:100AF0000703EC108FF000031C108E1000639CD0D5
:100B00008FF00073FDD0FFE00039FB90FFE0001C88
:100B1000F7108420000ECE1084200007FC108420E3
:100B20000003F01080000001C01080000001801060
:100B3000800000018010800000018010BAA3B8017D
:100B40008010BAA110030010AAA1100F8010AAA152
:100B5000101EC010A9393838C01080000070C010B5
:100B6000FFFFFFFFFFF0FFFFFFFFFFF03028FFFF59
:100B7000FFFFFFF0800000000010933B92980010F0
:100B8000AA912AA00010AB112B900010AA112B885B
:100B90000010921392B00010800000001C10800022
:100BA00000001C10800000073E7080000007FFF06E
:100BB00080000007FFF080000003BEF0800000030B
:100BC000FFF080038E07FFF080038E1FE3F08003A9
:100BD000FE1FE3F08003FE1FE3F08007FF07FFF036
:100BE000807FFFF3FFF0807DFDF3BEF0807FFFF795
:100BF000FFF08E1F8FC7FFF09E1F8FC73E70FE7FD6
:100C0000FFF01C10FC7FFFF01C10FE7DFDF00010BB
:100C1000FF0FFF800010DF07FF000010FFF3FE0052
:100C20000010FFF3FE000010FFF38E000010FF83A2
:100C30008E000010DF8000000010FF000000001098
:100C4000FFC000000010FFC000000010FFC0000047
:100C50000010FFFFFFFFFFF0FFFFFFFFFFF0486FF7
:100C6000737420286D617374657229004A6F696E10
:100C70002028736C617665290003053F213F120827
:100C8000120A100A0E1C0E0C1E0C141A14161F1633
:100C90001E131E1E1B1E1E1F1E3F213F3A2F3A17FA
:100CA0003D173F213F181F02040A041F0E04040EC3
:100CB0001F0A1F0A0E0E1F04110E2E252E2F2A2E7C
:100CC000262929021F02081F08150E04040E150EFE
:100CD00015151B151B040604040C04000000001766
:100CE000000300031F0A1F16371A1904130A153AC6
:100CF000000300000E11110E000A040A040E040085
:100D000030000404040010001804031F111F121FF8
:100D1000101D151711151F07041F17151D1F151D71
:100D200001011F1F151F17151F000A0000320004C4
:100D30000A110A0A0A110A040115020E11171E05EA
:100D40001E1F150A0E110A1F110E1F15111F050176
:100D50000E111D1F041F111F1108100F1F041B1F50
:100D600010101F061F1E040F0E110E1F09060E1174
:100D70002E1F051A121509011F011F101F0F180F32
:100D80001F0C1F1B041B031C03191513001F110349
:100D90000418111F000201022020200001020C1281
:100DA0001E1F120C0C12120C121F0C1A14041E051A
:100DB000242A1E1F021C141D1020201D1F081411A0
:100DC0001F101E041E1E021C0C120C3E0A040C12E4
:100DD0003E1E040214160A020F120E101E0E100EF2
:100DE0001E081E120C1226281E322A26041E21005E
:100DF0001F00211E040102013F213F0A4E6F2053B4
:100E0000442063617264206F720A6E6F204C4F4100
:100E10004445522E4845580A0A153A4578697400E7
:100E20001D20466C617368696E670A20206C6F61D3
:100E30006465722E2E2E0A0A444F4E2754205455B4
:100E4000524E204F464621000A0A153A49676E6FF6
:100E50007265006D560A0A504C4541534520545561
:100E6000524E204F464620004C4F5720424154548A
:100E7000455259212000177361766500166261633F
:100E80006B001574797065000A0A0A153A6F6B6178
:100E90007920163A6564697400596F7520656E741F
:100EA000657265640A00540A03E181867F3E186D0D
:100EB000830F0F0E0183866033186DC3198F1803DB
:100EC000C38E6033186DE330CF1803C39E60363095
:100ED000CDE360CF3006C79E7E3E30CDB360CF30CD
:100EE0000CC6F6603330D9B660CF33CFCCF6606134
:100EF000B0DB1E60CF30D86CE6C061B0DB1E618F06
:100F000019986CC6C063B19B0E330F0FB078C6FF43
:100F10007E1F1B061E0F175344001613780016136E
:100F20001400151020001520100000000500893065
:100F30000802380249786814000045006801000082
:100F40000500680138010000050038016801000053
:100F5000F6E8DBCFC3B8AEA49B928A827B746E683E
:100F6000625C57524E4945413E3A3734312E2C2966
:100F7000272523211F1D1C1A1917161514131211CA
:100F8000100F0E0D0C0B0A090807068F0F930F01A7
:100F900001F7030101FF0300000000240027002ADD
:100FA0000000000000250028002B000000000023A6
:100FB00000260029000404040404040404020202BC
:100FC000020202030303030303010204081020408A
:100FD0008001020408102001020408102000000013
:100FE00007000201000003040600000000000000EA
:100FF0000000B10B672E11241FBECFEFD8E0DEBF7B
:10100000CDBF12E0A0E0B1E0E0EDF1E702C0059055
:101010000D92A233B107D9F715E0A2E3B2E001C007
:101020001D92AD3AB107E1F71FE0C6EFDFE004C063
:101030002297FE010E944A38C23FD107C9F70E9499
:10104000CD330C94E6380C940000AF92BF92CF924F
:10105000DF92EF92FF920F931F9310924101109233
:10106000420120E030E040E051E42093430130931E
:10107000440140934501509346010F2EF0E0AF2EFE
:10108000F0E0BF2EF8E2CF2EF2E4DF2EF02DA0929A
:101090004701B0924801C0924901D0924A010F2EF7
:1010A000F0E0EF2EF0E0FF2EF0E00F2FF0E01F2F2A
:1010B000F02DE0924B01F0924C0100934D01109302
:1010C0004E01E0924F01F0925001009351011093B4
:1010D0005201FCE0F0935301E8E0E093540194E600
:1010E000909381019093820162E06093830175E0A7
:1010F000709384011092850160938601109288019B
:10110000109298011092990120E030E048E852E4F2
:1011100020939A0130939B0140939C0150939D0131
:10112000A0929E01B0929F01C092A001D092A10115
:10113000E092A201F092A3010093A4011093A501F3
:10114000E092A601F092A7010093A8011093A901D3
:10115000F093AA01E093AB019093D8019093D90149
:101160006093DA017093DB0191E09093DC0160936E
:10117000DD011092DF01882321F010928901109285
:10118000E00181E08093C9021092B9021092BA0284
:101190001092BB021092BC021092BD021092BE02CD
:1011A0001F910F91FF90EF90DF90CF90BF90AF9085
:1011B000089581E00E94250808951F9310924A0225
:1011C00083E08093EF0111E01093C1021093C202FB
:1011D0001092C5021092C3021092C4021092CB0268
:1011E00082E08093FE010E94D9088EE18093BF02C5
:1011F00080E58093C8021092C0021092C60210923D
:10120000C7021093CA021F910895CF93DF93EC0198
:10121000DC01AE5ABF4F8C91861709F44BC09E017A
:101220002C5A3F4FF9018081CB5ADF4F8883C55537
:10123000D040AE014D5A5F4FFA018081F9018083A1
:101240008C91FA0180836C93DE01A45BBF4F8C917B
:10125000882381F5653071F58081833059F5F90176
:101260008081823039F58AE088838FE08C936A81AF
:101270007B818C819D810E947436C65BDF4F6883C1
:10128000CA54D0406E817F818885998520E030E006
:1012900040E051E40E9406360E947436C55BDF4F81
:1012A00068832797888129968883279787E0888392
:1012B00081E001C080E0DF91CF910895CF93DF936B
:1012C000EC01C05CDF4F8881C054D0408823B1F06E
:1012D000CA5BDF4F8881C654D04018167CF0CE011F
:1012E00062E00E94050985E08883E8A5F9A5E491FC
:1012F000EB8BE8A5F9A53196E491EA8BDF91CF91CC
:101300000895CF93DF93EC01CA5BDF4F8881C65409
:10131000D040181634F1C05CDF4F8881C054D040F3
:101320008823F9F0CE0161E00E940509DE01A95B86
:10133000BF4F8C918823A9F487E08883E8A9F9A995
:10134000E491EB8BE8A9F9A93196E491EA8B81E06D
:101350008C9380E090E0A0E4B0EC8E879F87A88B10
:10136000B98BDF91CF910895CF92DF92EF92FF92E8
:101370000F931F93DF93CF93CDB7DEB7C755D04000
:101380000FB6F894DEBF0FBECDBF8C01005C1F4FBF
:10139000D8018C9100541040882309F498C00C5B4C
:1013A0001F4FF801808104541040882311F064E03D
:1013B00001C063E0C8010E940509095B1F4FD80105
:1013C0008C91075410408823E9F50C5B1F4FF801FE
:1013D000808104541040F801EA5BFF4F813081F4B2
:1013E000075B1F4F82E0D8018C9309541040808125
:1013F00018160CF46CC080E090E0A0E8BFE308C0D1
:10140000808118160CF463C080E090E0A0E4B0E4A2
:10141000F80182879387A487B587DE011196F801CA
:1014200087E501900D928150E1F7FE01E35BFF4FEC
:101430009081FE01EA5BFF4F8081181654F19923D9
:1014400041F541C00A5B1F4FD8018C9106541040F2
:1014500018160CF43CC0F801C284D384E484F584EB
:10146000C701B60120E030E040E450E40E946B3652
:1014700088237CF4C701B6012DEC3CEC4CEC5DE319
:101480000E940736D8011A966D937D938D939C9395
:101490001D97D801EC91AE2FB0E01596AA0FBB1F97
:1014A000AA0FBB1FA00FB11F8D919C911197FC013A
:1014B0008491F801838BED91FC913196E491D801F0
:1014C0005296EC9304C081E0F8018083E2CFC95AC0
:1014D000DF4F0FB6F894DEBF0FBECDBFCF91DF91C7
:1014E0001F910F91FF90EF90DF90CF900895CF92D2
:1014F000DF92EF92FF920F931F93DF93CF93CDB7BD
:10150000DEB7C755D0400FB6F894DEBF0FBECDBFD3
:101510008C01005C1F4FD8018C910054104088232F
:1015200009F498C00C5B1F4FF801808104541040EF
:10153000882311F063E001C064E0C8010E9405093E
:10154000095B1F4FD8018C91075410408823E9F59F
:101550000C5B1F4FF801808104541040F801EA5BD6
:10156000FF4F882381F4075B1F4F82E0D8018C93E3
:1015700009541040808118160CF46CC080E090E093
:10158000A0E8BFEB08C0808118160CF463C080E0AF
:1015900090E0A0E4B0ECF80182879387A487B58738
:1015A000DE011196F80187E501900D928150E1F777
:1015B000FE01E35BFF4F9081FE01EA5BFF4F8081FC
:1015C000181654F1992341F541C00A5B1F4FD80109
:1015D0008C910654104018160CF43CC0F801C284DB
:1015E000D384E484F584C701B60120E030E040E410
:1015F00050EC0E94523718167CF4C701B6012DEC4E
:101600003CEC4CEC5DE30E940636D8011A966D93D3
:101610007D938D939C931D97D801EC91AE2FB0E0F4
:101620001596AA0FBB1FAA0FBB1FA00FB11F8D914C
:101630009C911197FC018491F801838BED91FC91B1
:101640003196E491D8015296EC9304C081E0F80100
:101650008083E2CFC95ADF4F0FB6F894DEBF0FBECA
:10166000CDBFCF91DF911F910F91FF90EF90DF9051
:10167000CF9008951F938091C802882319F081505C
:101680008093C8028091C002882369F48091C802C7
:10169000833121F48DE08093C60205C0882319F4BC
:1016A00081E08093C0028091C002813051F480912A
:1016B000BF02882331F483E08093C0028CE38093DF
:1016C000C80280918101882321F08091D80188236C
:1016D00051F48091C002823031F082E08093C002E8
:1016E0008CE38093C8021091C0021130C1F4609164
:1016F000A3027091A4028091A5029091A60224E118
:1017000030E040E050E00E940B3861157105810522
:10171000910529F48091BF0281508093BF0212503D
:10172000123068F48091C8028E3120F08E5180937F
:10173000C70205C0882319F484E08093C0021F917A
:10174000089580E00E9425088EE18093BF0280E525
:101750008093C8021092C0021092C6021092C70273
:10176000089510928302109282028DE192E090938C
:1017700081028093800208950F931F931092890233
:101780008091D90280938A0200E812E0C80160E0EB
:1017900071E00E946A35C8016CE071E00E946A3510
:1017A000109289028091D9028E5C80938A02C801CE
:1017B0006AE171E00E946A35C80169E271E00E9445
:1017C0006A358091D90281508093D9021F910F917F
:1017D000089582E392E064EA70E00E94892A0E9400
:1017E000DD0882E38093D90208951F9311E0F8C0C9
:1017F0001093CC028AE295E00E94052E992787FD7E
:101800009095A92FB92FFC013397EE31F10508F01F
:10181000E7C0EC5CFF4FEE0FFF1F0590F491E02D49
:1018200009948AE295E00E94052E8093EF01D8C0CA
:101830008AE295E00E94052E8093C002D1C08AE220
:1018400095E00E94052E8093C802CAC08AE295E006
:101850000E94052EAA2797FDA095BA2FBC01CD01A5
:101860000E94A23660934301709344018093450126
:1018700090934601B5C08AE295E00E94052EAA2702
:1018800097FDA095BA2FBC01CD010E94A2366093AE
:101890004701709348018093490190934A01A0C089
:1018A0008AE295E00E94052E8093410199C08AE268
:1018B00095E00E94052E8093420192C08AE295E055
:1018C0000E94052E809353018BC08AE295E00E940E
:1018D000052E8093540184C08AE295E00E94052E73
:1018E000809381017DC08AE295E00E94052E80935D
:1018F000890176C08AE295E00E94052E80938501D9
:101900006FC08AE295E00E94052EAA2797FDA09558
:10191000BA2FBC01CD010E94A23660939A01709348
:101920009B0180939C0190939D015AC08AE295E0AF
:101930000E94052EAA2797FDA095BA2FBC01CD01C4
:101940000E94A23660939E0170939F018093A00134
:101950009093A10145C08AE295E00E94052E8093F4
:1019600098013EC08AE295E00E94052E809399017D
:1019700037C08AE295E00E94052E8093AA0130C00C
:101980008AE295E00E94052E8093AB0129C08AE28D
:1019900095E00E94052E8093D80122C08AE295E04E
:1019A0000E94052E8093E0011BC08AE295E00E9410
:1019B000052E8093DC0114C08AE295E00E94052E7A
:1019C0008093C6020DC08AE295E00E94052E8093A6
:1019D000C70206C08AE295E00E94052E8093BF02EE
:1019E0008AE295E00E94FC2D892B09F001CF81E06D
:1019F0008093C5021092C4021F91089589E28093DA
:101A0000CD028091B902882311F480E301C081E303
:101A10008093CE028AE28093CF028091BA0288231B
:101A200011F480E301C081E38093D0028BE28093C4
:101A3000D1028091BB02882311F480E301C081E3CD
:101A40008093D2028CE28093D3028091BC028823DF
:101A500011F480E301C081E38093D4028DE280938E
:101A6000D5028091BD02882311F480E301C081E397
:101A70008093D6028EE28093D7028091BE028823A3
:101A800011F480E301C081E38093D8028091C30206
:101A90008823C9F081E08093CD028093CE028093A9
:101AA000CF028093D0028093D1028093D2028093A0
:101AB000D3028093D4028093D5028093D602809380
:101AC000D7028093D8028091C1028823C9F082E0B6
:101AD0008093CD028093CE028093CF028093D00278
:101AE0008093D1028093D2028093D3028093D40258
:101AF0008093D5028093D6028093D7028093D80238
:101B00001092B9021092BA021092BB021092BC025B
:101B10001092BD021092BE022DEC32E0D9010D9060
:101B20000020E9F71197A21BB30BE0912A05F09171
:101B30002B050280F381E02D8AE295E0B901AD0129
:101B4000099508951092CC021092C30206C061E07C
:101B500070E080E090E00E941B328091C5028823F3
:101B6000B1F31092CC021092C50208950F931F9307
:101B70000AE215E0C80162E070E00E94262FC80169
:101B800065EF7BE00E945D2EC8016EEF7CE00E9455
:101B9000622E1F910F9108950F931F930AE215E093
:101BA000C80162E070E00E94F22DC80163E00E946B
:101BB000AF2EC8016091EF010E94AF2EC80164E012
:101BC0000E94AF2EC8016091C0020E94AF2EC801D2
:101BD00065E00E94AF2EC8016091C8020E94AF2E3E
:101BE000C8010E94F22EC80162E070E00E94F22D4E
:101BF000C8016EE10E94AF2EC8016091C6020E942A
:101C0000AF2EC8016FE10E94AF2EC8016091BF02E4
:101C10000E94AF2EC80160E20E94AF2EC801609101
:101C2000C7020E94AF2EC8010E94F22EC80162E0D6
:101C300070E00E94F22DC8016AE00E94AF2E609110
:101C400043017091440180914501909146010E94A9
:101C500074369B01AC01C801622F0E94AF2EC801EF
:101C60006BE00E94AF2E6091470170914801809116
:101C7000490190914A010E9474369B01AC01C80150
:101C8000622F0E94AF2EC8016CE00E94AF2EC801E7
:101C9000609141010E94AF2EC8016DE00E94AF2EFD
:101CA000C801609142010E94AF2EC8016EE00E94FF
:101CB000AF2EC801609153010E94AF2EC8016FE0A2
:101CC0000E94AF2EC801609154010E94AF2EC8013E
:101CD00060E10E94AF2E60918101772767FD7095CA
:101CE000C8010E94AF2EC80161E10E94AF2EC80159
:101CF000609189010E94AF2EC80162E10E94AF2E5F
:101D0000C801609185010E94AF2EC8010E94F22E89
:101D1000C80162E070E00E94F22DC80164E10E94F7
:101D2000AF2E60919A0170919B0180919C019091DE
:101D30009D010E9474369B01AC01C801622F0E9474
:101D4000AF2EC80165E10E94AF2E60919E01709197
:101D50009F018091A0019091A1010E9474369B0186
:101D6000AC01C801622F0E94AF2EC80166E10E943B
:101D7000AF2EC801609198010E94AF2EC80167E1A3
:101D80000E94AF2EC801609199010E94AF2EC80138
:101D900068E10E94AF2EC8016091AA010E94AF2E97
:101DA000C80169E10E94AF2EC8016091AB010E9499
:101DB000AF2EC8016AE10E94AF2E6091D80177274B
:101DC00067FD7095C8010E94AF2EC8016BE10E94AB
:101DD000AF2EC8016091E0010E94AF2EC8016CE1F6
:101DE0000E94AF2EC8016091DC010E94AF2EC80195
:101DF0000E94F22E1F910F9108958AE295E00E94B1
:101E0000072F08952091CB02222319F4E2E0F0E09D
:101E100003C0E22FF0E03197EE0FFF1FE850FE4FB6
:101E20002081318180E892E068EE48E00E9417202E
:101E3000E091CB02F0E0EE0FFF1FE850FE4F208153
:101E4000318180E892E066E142E00E941720209113
:101E5000CB02223019F4E0E0F0E003C0E22FF0E022
:101E60003196EE0FFF1FE850FE4F2081318180E850
:101E700092E064E448E00E94172008958091FE01FA
:101E8000882319F081508093FE018CE392E060E09A
:101E90000E941F1D882341F08091CB02882311F4FA
:101EA00082E011C081500FC08CE392E062E00E949A
:101EB0001F1D882359F08091CB02823019F41092B3
:101EC000CB0208958F5F8093CB0208958CE392E05C
:101ED00064E00E941F1D8823F1F08091FE01882399
:101EE000D1F48091CB02813059F41092C10210924A
:101EF000C2028093C3020E94FD0E0E94B60D07C06D
:101F00001092C10281E08093C2021092C3028091BC
:101F1000CB028093EF0108958CE392E061E00E9490
:101F20001F1D882339F48CE392E063E00E941F1D9B
:101F3000882341F090E08091CA02882309F491E05F
:101F40009093CA028CE392E064E00E941F1D8823F4
:101F500009F181E00E9425088EE18093BF0280E5AF
:101F60008093C8021092C0021092C6021092C7025B
:101F70008091CA02882359F08091C202882319F007
:101F80001092EF01089581E08093EF01089583E0BE
:101F90008093EF01089580918901833039F480E8BE
:101FA00092E06CE048E024ED31E006C080E892E089
:101FB0006CE048E026E133E00E9417209091C102D6
:101FC000992321F48091C202882331F08091890104
:101FD000833051F0992379F48091C202882359F417
:101FE0008091E001833039F480E892E06AE041E0DA
:101FF00028E534E006C080E892E06AE041E022E8AB
:1020000034E00E94172088E2809389028091CA02FE
:10201000882311F088E001C08EE080938A0280E876
:1020200092E063E974E00E94063408950F931F93D1
:1020300080E892E060E040E025E934E00E9417206B
:102040008091C0028230D1F0833061F18823A1F504
:1020500047E28091C602481B8091C80264E10E9459
:10206000D837E82FF0E0EE0FFF1FE051FE4F208140
:10207000318180E892E0642F42E11CC0909181019F
:102080008091D8019817C1F04091C702992319F0A7
:1020900025EE36E002C027EA36E04E5E80E892E0A8
:1020A0006DE108C04091C7024E5E80E892E065E1B4
:1020B00023E237E00E9417200091BF02802F6AE0E0
:1020C0000E94D837182F87E28093890281E080939D
:1020D0008A0280E892E0612F4AE050E00E940535D4
:1020E0008AE28093890286EF9FEF189F102D1124BA
:1020F000100F80E892E0612F4AE050E00E94053521
:102100001F910F9108958F929F92AF92BF92CF929D
:10211000DF92EF92FF920F931F93162FE82EFF246A
:10212000B7E58B2EB2E09B2EA1E0CA2EA2E0DA2EFC
:10213000F3E0EE0CFF1CFA95E1F75601AE0CBF1C64
:10214000C40160E0F501468120E0012F0E94F62ADB
:10215000C40161E0F501408120E00E94F62AF60109
:10216000EE0DFF1D24812195C40162E0F50145813A
:102170000E94F62ACE0CDF1CF60122812A53C401EC
:1021800063E0F50143810E94F62AC401F5016181F3
:102190004781212F0E94662B1F910F91FF90EF9096
:1021A000DF90CF90BF90AF909F908F900895CF9386
:1021B000DF93EC01C05CDF4F8881C054D04088239E
:1021C00009F448C0CA5BDF4F8881C654D040181656
:1021D0000CF440C080E060E00E948310CE0166E015
:1021E0000E9405098881853049F486E08883CB5BAD
:1021F000DF4F82E08883C554D04011C0C95BDF4FF8
:102200008881C754D040FE01EB5BFF4F882319F44F
:1022100082E0808303C088E0808382E08883CA5B99
:10222000DF4F85E08883C654D040E881AE2FB0E010
:102230001596AA0FBB1FAA0FBB1FAC0FBD1F8D9118
:102240009C911197FC0184918B8BED91FC913196BF
:10225000E491EA8BDF91CF9108950F931F93CF9371
:10226000DF93EC01C05CDF4F8881C054D0408823ED
:1022700009F452C0CA5BDF4F8881C654D04018169B
:102280000CF44AC081E060E00E948310CE0165E05A
:102290000E9405098881853049F486E08883CB5BFC
:1022A000DF4F82E08883C554D0401BC0C95BDF4F3D
:1022B0008881C754D0408E010B5B1F4F882369F47F
:1022C00063E070E080E090E025E030E040E050E046
:1022D0000E94E835688382E002C088E08883F801C4
:1022E0008083CA5BDF4F83E08883C654D040E88197
:1022F000AE2FB0E01596AA0FBB1FAA0FBB1FAC0FE5
:10230000BD1F8D919C911197FC0184918B8BED9158
:10231000FC913196E491EA8BDF91CF911F910F915F
:1023200008950F931F938AE295E062E070E04CE01D
:1023300050E00E94032F882309F48AC01092C4023F
:102340001092C30201E07CC08AE295E00E94052E53
:10235000182F8A3209F18B324CF4823009F45FC0B5
:10236000893271F0813009F064C04FC08C3261F164
:102370008C32F4F08D3299F18E3209F05AC03AC0A5
:102380008AE295E00E94052EC19709F059C088E9BC
:1023900091E00E94810954C08AE295E00E94052ED6
:1023A000C19709F04DC088E991E00E945E0948C0DC
:1023B0008AE295E00E94052EC19709F041C088E9A4
:1023C00091E00E94770A3CC08AE295E00E94052EC7
:1023D000C197B1F588E991E00E94B40931C08AE261
:1023E00095E00E94052EC19759F588E991E00E9479
:1023F0002D1126C08AE295E00E94052EC19701F5B5
:1024000088E991E00E94D7101BC082E392E067EC5C
:1024100071E042E00E94D1241093C30211C082E314
:1024200092E06AEB71E042E00E94D1240093C30283
:1024300007C082E392E069EA71E042E00E94D124A1
:102440008AE295E00E94FC2D892B09F07DCF0CC01B
:1024500082E392E066E971E042E00E94D12481E0EB
:102460008093C3028093C4021F910F9108950E942C
:1024700091110E94CC0D08958F929F92AF92BF92BE
:10248000CF92DF92EF92FF920F931F93CF93DF9340
:10249000EC01FB018091C002813009F0ABC080816A
:1024A0008550823018F435E0A32E01C0AA24C05C08
:1024B000DF4FE05CFF4FB880C054D0408081B81A35
:1024C0003C968081882319F025E0822E01C0882463
:1024D00060E070E080E090E024E630E040E050E032
:1024E0000E94E835962EE62EFF240A2D10E0CB2C14
:1024F000DD24C7FCD094C6014496801B910B8E1539
:102500009F0524F0CE010E942D1107C0892D825411
:102510008D3118F4CE010E94D710AA2021F01B148F
:1025200014F48AE001C080E0A82EBB24C601865ABC
:102530009F4F8A199B098E159F0544F4CC5BDF4F92
:102540008881C454D0408823A9F010C0C601889661
:10255000800F911F8A199B098E159F0574F0CC5B23
:10256000DF4F8881C454D040882321F4CE010E94DB
:10257000B40903C0CE010E94770A83E1891550F4A3
:10258000882D90E048968E159F0524F0CE010E947C
:10259000810930C0C6018796801B910B8E159F055F
:1025A0003CF48CE2891520F0CE010E945E0922C025
:1025B0008DE28915F8F40C191D09005D1F4F080DF7
:1025C000111D0A0D1B1DE016F106A4F4CE010E9498
:1025D0005E09CC5BDF4F8881C454D040882321F44E
:1025E000CE010E94B40903C0CE010E94770ACE0139
:1025F0000E942D11DF91CF911F910F91FF90EF90CD
:10260000DF90CF90BF90AF909F908F900895CF9321
:10261000DF93EC018CE392E062E041E00E94291D2F
:10262000882321F0CE010E94B4090BC08CE392E014
:1026300060E041E00E94291D882319F0CE010E942C
:10264000770A8CE392E061E00E941F1D882321F04D
:10265000CE010E9481090BC08CE392E063E041E06F
:102660000E94291D882319F0CE010E945E098CE387
:1026700092E064E00E941F1D882321F0CE010E9499
:102680002D110AC08CE392E065E00E941F1D882393
:1026900019F0CE010E94D710DF91CF9108958CE3FD
:1026A00092E062E041E00E94291D882321F081E050
:1026B0008093BC020BC08CE392E060E041E00E949A
:1026C000291D882319F081E08093BB028CE392E0FE
:1026D00061E00E941F1D882321F081E08093B902F0
:1026E0000BC08CE392E063E041E00E94291D882347
:1026F00019F081E08093BA028CE392E064E00E94DA
:102700001F1D882341F081E060E00E94831081E07A
:102710008093BD0208958CE392E065E00E941F1D46
:10272000882339F080E060E00E94831081E080938C
:10273000BE0208958091C002813011F40E944F13AF
:1027400008952F923F924F925F926F927F928F9255
:102750009F92AF92BF92CF92DF92EF92FF920F9330
:102760001F93DF93CF93CDB7DEB728970FB6F894BA
:10277000DEBF0FBECDBF1C016B0122E430E0220E94
:10278000331ED1012C91EEEBFFEF2E0E3F1E3327AF
:1027900027FD3095432F532F6091A3027091A4021F
:1027A0008091A5029091A6020E940B3861157105D7
:1027B0008105910541F4D10111968C9111978F5F9C
:1027C000817011968C93F101EA5BFF4F808118169E
:1027D00014F481508083F101EA5AFF4F80818823ED
:1027E00011F081508083ECE4F0E02E0E3F1ED10109
:1027F0008C91E4EBFFEF2E0E3F1E882331F12AE48B
:1028000030E0220E331ED1019C91E3E0F0E02E0E69
:102810003F1ED1018C91E3EBFFEF2E0E3F1E88236C
:1028200011F08DEF01C083E02AE430E0220E331E68
:10283000890FD1018C93E6EBFFEF2E0E3F1EF101C5
:10284000E45BFF4F808181508083F101EB5BFF4FA0
:102850008081181614F481508083F101E75BFF4FEB
:102860008081882311F08150808320E430E0220EA3
:10287000331ED1018C91E0ECFFEF2E0E3F1E181697
:102880000CF070C025E430E0220E331ED1018C9193
:10289000EBEBFFEF2E0E3F1E882309F076C0D1012F
:1028A0009C91992309F471C0953009F46EC0993058
:1028B00009F46BC0E6E5F0E02E0E3F1ED1018C91CD
:1028C000EAEAFFEF2E0E3F1E882309F05EC0963025
:1028D00011F485E00DC0E7E4F0E02E0E3F1ED101BB
:1028E0008C91E9EBFFEF2E0E3F1E882321F087E04D
:1028F000D1018C931FC0F101E284F3840485158516
:10290000C801B7012DEC3CEC4CEC5DE30E946B364A
:1029100088236CF4C801B7012DEC3CEC4CEC5DEB6A
:102920000E94523718161CF4D1011C9203C081E09A
:10293000F1018083D101EC91AE2FB0E01596AA0F82
:10294000BB1FAA0FBB1FA20DB31D8D919C911197A8
:10295000FC018491F101838BED91FC913196E4911E
:10296000D10111C089E0F101808300ACF1ADE02D0F
:10297000E491D1015396EC935397D896ED91FC9145
:10298000D9973196E4915296EC93F101E284F38465
:1029900004851585C801B70120E030E040E050E033
:1029A0000E945237181664F424E430E0220E331EDD
:1029B000D1018C91ECEBFFEF2E0E3F1E8823C1F06E
:1029C000C801B70120E030E040E050E00E946B36E3
:1029D00088230CF072C024E430E0220E331ED101B3
:1029E0008C91ECEBFFEF2E0E3F1E882309F465C09F
:1029F000D10152960C91529710E0F60182889924E9
:102A000012966D917D918D919C9115970E946F36D4
:102A100069837A838B839C83B801882777FD8095AF
:102A2000982F0E94A2369B01AC01D10116966D91A0
:102A30007D918D919C9119970E9406360E946F3668
:102A40002B013C01F60162817381848195810E9492
:102A50006F366D837E838F839887B401882777FDD7
:102A60008095982F0E94A2369B01AC01D601169644
:102A70006D917D918D919C9119970E9406360E94CF
:102A80006F365B016C0182E392E069817A81A20179
:102A900028E030E0ED80FE806501E8E0AE2EB12C4C
:102AA0000E947125882349F080E090E0A0E0B0E02A
:102AB000F10182879387A487B58727E430E0220E4F
:102AC000331ED1018C91E9EBFFEF2E0E3F1E8823C0
:102AD00009F04FC0D1011A96ED90FD900D911C9117
:102AE0001D97C801B70120E030E040E050E00E94AF
:102AF0006B368823F1F0F1016281738184819581C5
:102B0000A80197010E940736D10112966D937D931B
:102B10008D939C931597C801B7012DEC3CEC4CECC0
:102B20005EE30E945637F101628773878487958739
:102B3000C4C0C801B7012DEC3CEC4CEC5DE30E9435
:102B40006B3688230CF0B9C0C801B7012DEC3CEC02
:102B50004CEC5DEB0E94523718160CF0AEC080E0D2
:102B600090E0A0E0B0E0F10182879387A487B58769
:102B7000A4C0D1011E96ED90FD900D911C9151972E
:102B8000C801B7012AE939E949E95FEB0E946B36D0
:102B900088233CF4C801B70126E636E646E65FE343
:102BA0001DC0C801B70120E030E040E050E00E94C5
:102BB0006B36882344F4D801C701B058F1018687E9
:102BC0009787A08BB18BD1011E966D917D918D91D0
:102BD0009C91519726E636E646EA5FE30E94563717
:102BE0009B01AC01F10166877787808B918B6681B1
:102BF0007781808591850E940736D10116966D9365
:102C00007D938D939C931997F101628173818481E7
:102C1000958122853385448555850E940736D101EB
:102C200012966D937D938D939C9315971A966D9143
:102C30007D918D919C911D9726E636E646E65FE3F1
:102C40000E945637F1016287738784879587668172
:102C500077818085918520E030E048E252E40E944F
:102C60005237882354F180E090E0A8E2B2E4F10109
:102C700086839783A087B18727E430E0220E331E36
:102C8000D1011C92E9EBFFEF2E0E3F1E80E090E099
:102C9000A0E0B0E0F10186879787A08BB18B828797
:102CA0009387A487B58725E430E0220E331ED10137
:102CB0001C92EBEBFFEF2E0E3F1ED1011296ED9012
:102CC000FD900D911C911597C801B70120E030E0EF
:102CD00040E050E00E946B36882354F480E090E09E
:102CE000A0E0B0E0F10182839383A483B58329C07F
:102CF000D10153968C91C82EDD24B601882777FD2B
:102D00008095982F0E94A2369B01AC01C801B701A3
:102D10000E94073620E030E048EA52E40E94523731
:102D200018167CF464E570E06C197D09882777FD3E
:102D30008095982F0E94A236F10162837383848369
:102D4000958328960FB6F894DEBF0FBECDBFCF9106
:102D5000DF911F910F91FF90EF90DF90CF90BF9088
:102D6000AF909F908F907F906F905F904F903F902B
:102D70002F9008952F923F924F928F929F92AF92F1
:102D8000BF92CF92DF92EF92FF920F931F93DF9348
:102D9000CF93CDB7DEB7A0970FB6F894DEBF0FBEC6
:102DA000CDBF1C0178A36F8FDC019C91892F8350CC
:102DB000823008F060C0FB018288992412966D91E0
:102DC0007D918D919C91159720E030E040E850E492
:102DD0000E9406360E946F3669837A838B839C83B8
:102DE000D10116966D917D918D919C91199720E05E
:102DF00030E040E651E40E9406360E946F367B01C7
:102E00008C01EF8DF8A162817381848195810E948C
:102E10006F366D837E838F839887B401882777FD13
:102E20008095982F0E94A2369B01AC01AF8DB8A16E
:102E300016966D917D918D919C9119970E94063601
:102E40000E946F365B016C0182E392E069817A81B6
:102E5000A7012EE030E003E010E0ED80FE80650188
:102E6000A6E0AA2EB12C0E947125882309F42FC157
:102E7000F5E04F2E2DC1923019F0983009F097C02F
:102E8000EF8DF8A182889924D10112966D917D91E0
:102E90008D919C91159720E030E040EC50E40E9429
:102EA00006360E946F3669877A878B879C87F10187
:102EB000668177818085918520E030E040E451E4AF
:102EC0000E9406360E946F367B018C01AF8DB8A13F
:102ED00012966D917D918D919C9115970E946F3600
:102EE0006D877E878F87988BB401882777FD8095C3
:102EF000982F0E94A2369B01AC01EF8DF8A166814C
:102F00007781808591850E9406360E946F365B012D
:102F10006C0182E392E069857A85A70122E130E0C5
:102F200003E010E0ED84FE846501E6E0AE2EB12CF6
:102F30000E947125882309F4CAC0F101EB5BFF4FA1
:102F4000808181508083D1018C91883009F0BCC090
:102F500060E070E080E090E022E030E040E050E0AF
:102F60000E94E835611571058105910509F0ACC035
:102F7000EF8DF8A1EA5AFF4F85E08083E655F040D7
:102F8000F8A3EF8F89E08083AF8DB8A1D896ED913B
:102F9000FC91D997E4915396EC935397D896ED9181
:102FA000FC91D9973196E4915296EC938DC096306E
:102FB00009F08DC0EF8DF8A182889924D101129675
:102FC0006D917D918D919C91159720E030E040ECC2
:102FD00050E40E9406360E946F36698B7A8B8B8B89
:102FE0009C8BF101668177818085918520E030E0BE
:102FF00040E450E40E9406360E946F367B018C014B
:10300000AF8DB8A112966D917D918D919C91159780
:103010000E946F366D8B7E8B8F8B988FB4018827C3
:1030200077FD8095982F0E94A2369B01AC01EF8D11
:10303000F8A166817781808591850E9406360E947D
:103040006F365B016C0182E392E069897A89A7019E
:1030500022E130E003E010E0ED88FE886501B6E093
:10306000AB2EB12C0E947125882389F160E070E0BD
:1030700080E090E022E030E040E050E00E94E8355F
:103080006115710581059105E1F489E0AF8DB8A165
:103090008C93AA5ABF4F85E08C93A655B040B8A335
:1030A000AF8FD896ED91FC91D997E4915396EC931C
:1030B0005397D896ED91FC91D9973196E491529619
:1030C000EC93A3E04A2E04C0F8E04F2E01C0442444
:1030D000F101E45BFF4FFA8FE98F8081882309F4C7
:1030E000CCC0AF8DB8A152968C909924EAE4F0E060
:1030F0002E0E3F1ED1011D911D010C91E5EBFFEF3E
:103100002E0E3F1EAF8DB8A112966D917D918D91BF
:103110009C9115970E946F366B8F7C8F8D8F9E8F41
:10312000B401882777FD8095982F0E94A2369B01D5
:10313000AC01EF8DF8A166817781808591850E9431
:1031400006360E946F365B016C0182E392E0612FCC
:1031500070E0402F50E026E030E006E010E0EB8C1D
:10316000FC8C6501E6E0AE2EB12C0E94712588230F
:10317000B9F0A98DBA8D8C91882381F0833010F439
:1031800091E001C092E0ECE4F0E02E0E3F1E891BBE
:10319000D1018C93E4EBFFEF2E0E3F1E1AE0412E7F
:1031A0002F8D38A1245B3F4FD9018C91AC54B04096
:1031B000B8A3AF8F882309F460C0EAE4F0E02E0ED4
:1031C0003F1ED1016D911D014C91E5EBFFEF2E0EDD
:1031D0003F1E2F8D38A1265B3F4FD901ED90CC903B
:1031E000AB54B040B8A3AF8F82E392E070E050E000
:1031F00026E030E006E010E0FF24DD24B6E0AB2E50
:10320000B12CA6E08A2E912C0E9471258823A9F169
:10321000ECE4F0E02E0E3F1ED1018C91E4EBFFEFC9
:103220002E0E3F1E882349F1833010F491E001C037
:1032300092E02CE430E0220E331E891BD1018C93E6
:10324000E4EBFFEF2E0E3F1E2F8D38A1245B3F4F86
:10325000D9018C91AC54B040B8A3AF8F833010F437
:1032600091E001C092E0EF8DF8A1E45BFF4F891B74
:103270008083EC54F040F8A3EF8F442009F461C040
:103280002F8D38A1275B3F4FD9018C91A954B040B5
:10329000B8A3AF8F882339F0F101EA5BFF4F80813B
:1032A000865F80834694EF8DF8A1E05CFF4F8081BC
:1032B0008419808387FF05C0108282E060E00E944D
:1032C0008310EF8DF8A1EC5BFF4F8081E454F04058
:1032D000F8A3EF8FE05CFF4F882399F480811816E4
:1032E0002CF480E090E0A0E4B0EC12C080E090E02C
:1032F000A0E9B1ECEF8DF8A182879387A487B58709
:103300001CC0808118165CF480E090E0A0E4B0E47A
:10331000EF8DF8A182879387A487B58712C080E0DC
:1033200090E0A0E9B1E4EF8DF8A182879387A487AC
:10333000B58780E090E0A0E9B1EC86879787A08B05
:10334000B18BA0960FB6F894DEBF0FBECDBFCF9164
:10335000DF911F910F91FF90EF90DF90CF90BF9082
:10336000AF909F908F904F903F902F900895DF9354
:10337000CF93CDB7DEB7C755D0400FB6F894DEBFB8
:103380000FBECDBF8091C002843028F4823078F423
:103390008130F1F503C08430D9F523C08091EF016D
:1033A0008230B1F181E491E00E94071331C0809135
:1033B000C902882369F1909181018091D801981701
:1033C00069F0891734F4809189018F5F80938901B6
:1033D00005C08091E0018F5F8093E0011092C902E7
:1033E00017C080918901833021F08091E001833002
:1033F00069F48091EF01823029F4109289011092D2
:10340000E00104C084E08093EF0102C00E94A10BA0
:1034100081E491E068E971E00E94A11388E991E0FC
:1034200061E471E00E94A113609143017091440135
:10343000809145019091460120919A0130919B0124
:1034400040919C0150919D010E946B36882334F479
:103450001092850181E08093DC0105C081E08093BA
:1034600085011092DC01DE011196E1E4F1E087E5CF
:1034700001900D928150E1F7FE01E35BFF4F9081D7
:10348000FE01EA5BFF4F8081181614F0992331F09A
:1034900081E491E068E971E00E94BA16DE011196BC
:1034A000E8E9F1E087E501900D928150E1F7FE0136
:1034B000E35BFF4F9081FE01EA5BFF4F80811816AE
:1034C00014F0992331F088E991E061E471E00E9401
:1034D000BA16C95ADF4F0FB6F894DEBF0FBECDBF84
:1034E000CF91DF910895CF92DF92EF92FF920F93E9
:1034F0001F93CF93DF93EC01C45BDF4F8881CC54E3
:10350000D0408823F1F0C65BDF4F69914881CB54EE
:10351000D040863038F0C25BDF4F28813981CE54ED
:10352000D04006C0C05BDF4F28813981C055D040F4
:10353000FE01E35BFF4F80E892E000E0E0800E9444
:10354000AA21CC5BDF4FC880C454D040CC2029F4E2
:103550006A817B818C819D8112C06B8970E066508D
:103560007040882777FD8095982F0E94A2369B0196
:10357000AC016A817B818C819D810E9406360E940C
:103580006F36D62EEE80FF80088519856A8989817D
:10359000E881882359F4F0E03596EE0FFF1FEE0F17
:1035A000FF1FEC0FFD1FC081D18109C0F0E0EE0FBD
:1035B000FF1FEE0FFF1FEC0FFD1FC689D78970E0BC
:1035C000882777FD8095982F0E94A2369B01AC0139
:1035D000C801B7010E9406360E946F369B01AC01FC
:1035E00080E892E06D2D422F9E0100E0EC2C0E94BD
:1035F000AA21DF91CF911F910F91FF90EF90DF9063
:10360000CF900895FF920F931F93CF93DF9381E4A0
:1036100091E00E94731A88E991E00E94731A609108
:10362000810170E0882777FD8095982F0E94A2364F
:103630002FE135E84BE65EE30E9456370E94743670
:103640008B019C0180E892E06EE042E0202F03E0D5
:103650000E94241E6091D80170E0882777FD809534
:10366000982F0E94A2362FE135E84BE65EE30E94D8
:1036700056370E9474368B019C0166E4601B80E81B
:1036800092E042E0202F03E00E94241E10E095E02B
:10369000F92E0CC01F9DB00111246E5F80E892E0EE
:1036A00048E022E002E00E94241E1F5F8091890111
:1036B000181780F310E0CBEFDFEF0CC01C9F602DDC
:1036C0001124605B80E892E048E022E002E00E9482
:1036D000241E1F5F8091E001181780F3DF91CF91C6
:1036E0001F910F91FF9008951F9382E392E00E9433
:1036F0005126882309F499C08CE392E066E00E9489
:103700001F1D882311F00E94E90B1091EF01133067
:1037100029F40E943E0F0E94020F87C0143089F4E2
:103720000E948C0F0E94CB0F8091C102882309F464
:103730007CC08091C202882309F077C00E943712B2
:1037400074C0113011F582E392E06DE677E042E05B
:103750000E94C427882319F0813099F407C0109281
:10376000C3021092C4021093C10206C01092C30299
:103770001092C4021092C1021092C2021092EF0184
:1037800054C083E08093EF0150C01230B9F488E94F
:1037900091E061E471E00E943C1281E491E068E90B
:1037A00071E00E943C120E94B7190E943A0B0E94DD
:1037B000021B0E9416100E94BC0B37C08091C102F0
:1037C0009091C202882329F0992349F40E9437126C
:1037D00006C0992321F40E949A130E94A20D8091A1
:1037E000C302882341F08091C202882321F4809192
:1037F000C1028823B1F48091C102882321F4809111
:10380000C202882321F00E94B7190E943A0B8091CE
:10381000C202882331F088E991E061E471E00E94FE
:103820003C120E94021B0E9416101F91089582E311
:1038300092E00E948F2A0E94E90B0895882319F4D0
:103840008CB5806202C08CB58F7D8CBD08959CB50F
:10385000937F982B9CBD08952CB5382F33702C7F07
:10386000322B3CBD2DB590E0959587959595879524
:1038700081702E7F822B8DBD08958AE061E00E94C9
:103880006A338AE061E00E94FE328CB580618CBDB3
:103890008CB580648CBD8DE061E00E94FE328BE0CF
:1038A00061E00E94FE320895FC0181E0808308956A
:1038B00085E070E00E949E3208956F927F928F9211
:1038C0009F92AF92BF92CF92DF92EF92FF920F93AF
:1038D0001F93CF93DF93EC0189819A818C0124E0BF
:1038E000000F111F2A95E1F7081B190B85E10E94B3
:1038F0007C32BC01600F711F84E0769567958A95D4
:10390000E1F77A8369838881882381F12E813F8161
:103910006217730710F4B90106C088859985861768
:10392000970708F4BC0100D000D080E090E040E0B0
:1039300050E0E884F98400E010E0AD80BB24CC24A2
:10394000DD246C80772488249924EDB7FEB761824A
:103950007282838294820E947D356B830F900F90D8
:103960000F900F9085E070E00E949E32DF91CF9122
:103970001F910F91FF90EF90DF90CF90BF90AF908D
:103980009F908F907F906F900895FC018CE39FE053
:103990009383828384E0818381E084870895CF9339
:1039A000DF93EC018C819D81892BB1F18C8590E0B6
:1039B0008F719070892B69F584E10E947C32AA276F
:1039C00097FDA095BA2FBC01CD010E94A23626EE2C
:1039D0003FE34EEC50E40E9456370E9474369B0140
:1039E000AC017B836A836115710589F084E089836A
:1039F000B901FE0120E0848195816817790710F4F0
:103A000029830AC02F5F32962430A9F702C08FEFB6
:103A100089838C858F5F8C87DF91CF910895FC011E
:103A200088E0808389E0818387E0828386E08383E6
:103A300084E0848382E0858381E18683089520E0A9
:103A4000FC01E60FF11D8781813009F421E0822F0E
:103A50000895E62FF0E0423040F420E0E80FF91F2F
:103A6000878181508E3F88F40FC0E80FF91F87814E
:103A70008F3F11F420E009C020E090E0642F70E057
:103A80000E94E437019709F421E0822F08950F93F3
:103A90001F93CF93DF93EC0110E00FEF888162E07A
:103AA0000E94FE3288810E949D332F81892B19F458
:103AB0002F5F2F8307C0222349F02F3F11F41F826D
:103AC00001C00F83888160E00E94FE321F5F219653
:103AD000173021F7DF91CF911F910F910895FC01CD
:103AE000742F643508F06FC047FD6DC040330CF093
:103AF0006AC080A1823021F5842F859585958595B2
:103B0000992787FD9095462F552747FD509524E529
:103B100030E0829FF001839FF00D929FF00D112401
:103B2000E40FF51FE652FD4F808190E0272F2770AC
:103B300002C0959587952A95E2F78095817009C016
:103B4000833039F49485842F8627892780FF03C02A
:103B50001FC08823E9F4E72FE595E595E59584E511
:103B6000E802F0011124862F992787FD9095E80F30
:103B7000F91FE652FD4F777081E090E002C0880F98
:103B8000991F7A95E2F78095208128232083089554
:103B9000E72FE595E595E59584E5E802F001112428
:103BA000862F992787FD9095E80FF91FE652FD4F64
:103BB000777081E090E002C0880F991F7A95E2F754
:103BC0002081282B20830895FC0160A361A3089520
:103BD000FC0160A341A30895EF92FF920F931F93FE
:103BE000CF93DF93EC01E62EF42E022F10E007C0F6
:103BF000412F4F0DCE016E2D0E946F1D1F5F1017BC
:103C0000BCF3DF91CF911F910F91FF90EF9008953A
:103C1000EF92FF920F931F93CF93DF93EC01E62E69
:103C2000F42E022F10E007C0612F6E0DCE014F2D34
:103C30000E946F1D1F5F1017BCF3DF91CF911F9182
:103C40000F91FF90EF9008959F92AF92BF92CF9205
:103C5000DF92EF92FF920F931F93CF93DF936C014C
:103C6000962EB42EA22EC0E0D0E0E42EFF24E7FC76
:103C7000F094112707FD10950E0D1F1D06C0C601FB
:103C8000692D2A2D0E94081E21964B2D4C0FCE0126
:103C90008E0D9F1D8017910794F3DF91CF911F9197
:103CA0000F91FF90EF90DF90CF90BF90AF909F90DB
:103CB00008952F923F925F926F927F928F929F9280
:103CC000AF92BF92CF92DF92EF92FF920F931F932A
:103CD000DF93CF9300D000D000D0CDB7DEB79E8366
:103CE0008D83C62ED42EEE24E394E21A8EEF289F05
:103CF000502C1124842E8A94962E9A94A42EA39448
:103D0000B62EB394F22E662423E0722E10E0C80182
:103D1000847090709A838983F801E270F070FC835C
:103D2000EB8398E0292E312C202231220170107073
:103D300054C0E7FC04C0FA94F2E05F0EE50C639413
:103D400089819A81892B71F04F2D4D0D8D819E8136
:103D50006B2D0E946F1D6F2D6C0D8D819E814A2DE4
:103D60000E946F1DEB81FC81EF2B71F04D2D4F19DF
:103D70008D819E816B2D0E946F1D6F2D6C0D8D812D
:103D80009E81482D0E946F1D2114310471F06C2D0D
:103D90006F198D819E814A2D0E946F1D4F2D4D0DF3
:103DA0008D819E81692D0E946F1D0115110571F095
:103DB0006C2D6F198D819E81482D0E946F1D4D2D98
:103DC0004F198D819E81692D0E946F1DE70CF2E0D5
:103DD0007F0E8A949A94A394B3946F140CF4A9CF91
:103DE00026960FB6F894DEBF0FBECDBFCF91DF9100
:103DF0001F910F91FF90EF90DF90CF90BF90AF9009
:103E00009F908F907F906F905F903F902F9008953C
:103E10004F925F926F927F928F929F92AF92BF92DA
:103E2000CF92DF92EF92FF920F931F93CF93DF9386
:103E3000EC01A62E742E9E2DFF24F394F21A8EEF21
:103E4000289F802C1124B42EBA9453E0C52ECE0C9A
:103E5000E22EDD2443E0942E10E031E0432E512C7D
:103E600040225122692E63940270107034C0F7FC16
:103E700004C0EA9482E0880EF80CD39441145104F3
:103E800089F06D2D6A0D472D4E192E2D220F260D0E
:103E9000CE010E94EC1D6E2D6A0DCE014B2D2C2DF6
:103EA0000E94EC1D0115110589F06A2D6D19472D31
:103EB0004E192E2D220F260DCE010E94EC1D6A2DCB
:103EC0006E19CE014B2D2C2D0E94EC1DF90C82E0B9
:103ED000980EBA94C80EDE1454F2DF91CF911F9160
:103EE0000F91FF90EF90DF90CF90BF90AF909F9099
:103EF0008F907F906F905F904F9008957F928F92F8
:103F00009F92AF92BF92CF92DF92EF92FF920F9368
:103F10001F936C01962EA42EF22E7E2C760E1EEF91
:103F2000E19E102D1124812E820E672D282D0E94D6
:103F3000081EB02EBA0CBA94C601672D4B2D282D41
:103F40000E94081EAE0C100FC601692D4A2D212FAC
:103F50000E94EC1DF90CFA94C6016F2D4A2D212FF9
:103F60000E94EC1DC601672D4A2D2E2D01E00E94F6
:103F7000591EFE18C6016F2D4A2D2E2D02E00E94FB
:103F8000591EBE18C6016F2D4B2D2E2D04E00E9428
:103F9000591EC601672D4B2D2E2D08E00E94591E7B
:103FA0001F910F91FF90EF90DF90CF90BF90AF9057
:103FB0009F908F907F9008958F929F92AF92BF9223
:103FC000CF92DF92EF92FF920F931F936C01162F07
:103FD000A42E922EF02EBE2C8E2C860E2EEFE29E5C
:103FE000E02C11242E2D290D682D0E94241EAB0CCF
:103FF000FA94FE0C1150190D1B19C601612F4A2DA0
:104000002B2D01E0EF2C0E94081FC601682D4A2DC0
:104010002B2D02E00E94081F1F910F91FF90EF903F
:10402000DF90CF90BF90AF909F908F9008952F9288
:104030003F924F925F926F927F928F929F92AF9238
:10404000BF92CF92DF92EF92FF920F931F93DF9375
:10405000CF9300D000D0CDB7DEB74C01D62E142FB1
:10406000F9018491319694913197D40190966C9096
:10407000B3E5B6170CF457C1482F552747FD5095A7
:10408000A62EBB24A7FCB0942A014A0C5B1C141476
:1040900015040CF048C110330CF045C1092F212F35
:1040A000332727FD3095892F992787FD9095820F1B
:1040B000931F181619060CF036C162E0E62EF12C9B
:1040C000EE0EFF1ECA01079668E070E00E94F83706
:1040D000762E17FF0EC0010F862F90E0FC01E29FA5
:1040E000C001E39F900DF29F900D1124E81AF90A88
:1040F00010E0802F992787FD9095212F332727FDEA
:104100003095820F931FC19714F000E3011BD7FC79
:10411000DD24C2018535910514F084E590E0C82EB8
:10412000D4011C969C909126ED2DF0E0CF018A19C8
:104130009B09AC014770507020E830E002C0359513
:1041400027954A95E2F7B22E68E070E00E94F837B2
:10415000AB014E0D5F1D5C834B83212F277081E0E7
:1041600090E0682F01C0660F2A95EAF7159515951E
:10417000159584E51802A00111244E0F5F1F4652C9
:104180005D4F8824202E332427FC3094472C55245F
:10419000C4C0EB81FC812491F1E06F1629F5AB815D
:1041A000BC817B2D022F7A011D2D1BC0872F90E033
:1041B000202F30E082239323892B21F0F701808187
:1041C000862B8083872F90E095958795782F88237D
:1041D00021F41196FD01049170E81F5F0894E11C21
:1041E000F11C1C1518F38DC0662059F5F62EF094BD
:1041F000AB81BC817B2D022F5A8349831D2D1EC0AC
:10420000872F90E0202F30E082239323892B29F001
:10421000E981FA8180818F218083872F90E09595B5
:104220008795782F882321F41196FD01049170E879
:104230001F5F89819A8101969A8389831C1500F3F7
:1042400060C093E0691639F0AB81BC817B2D022FF1
:104250007A011D2D54C0A62EA094AB81BC817B2D6C
:10426000022F5A8349831D2DE92CFF2428C0872F54
:1042700090E0202F30E082239323892B79F0812F47
:1042800090E08E259F25E981FA81908180FF02C010
:10429000962B03C09A21E981FA819083872F90E0C1
:1042A00095958795782F882321F41196FD01049127
:1042B00070E81F5F89819A8101969A8389831C1512
:1042C000B0F291E099261DC0872F90E0202F30E0BA
:1042D00082239323892B21F0F70180818627808315
:1042E000872F90E095958795782F882321F4119654
:1042F000FD01049170E81F5F0894E11CF11C1C157E
:1043000018F3660F19F44C5A5F4F61E083948B8168
:104310009C81840D951D9C838B83882D90E0821554
:1043200093050CF436CF0F900F900F900F90CF9114
:10433000DF911F910F91FF90EF90DF90CF90BF9092
:10434000AF909F908F907F906F905F904F903F9035
:104350002F9008952F923F924F925F926F927F928B
:104360008F929F92AF92BF92CF92DF92EF92FF9285
:104370000F931F93DF93CF93CDB7DEB728970FB678
:10438000F894DEBF0FBECDBF1C016A834B83690169
:104390009E2C002329F4EE2019F40E94172083C0DC
:1043A000F60174900894C11CD11CF6018490089405
:1043B000C108D108872D90E0079623E09595879551
:1043C0002A95E1F703700983672C6A94A62C00E014
:1043D000282F332727FD30953D832C83382D3150EE
:1043E0003E835EC0802F877090E8492E512C02C01A
:1043F000559447948A95E2F7802F85958595859504
:10440000E82FFF27E7FDF0953296EC0DFD1DF887AC
:10441000EF83BE80FF243FC0EF81F885849190E058
:1044200084219521892B69F1F981F13051F0F13026
:1044300028F0F23049F0F33061F409C0102FEF2C6E
:1044400008C0EA2C1F2D05C01A2DEB2C02C01B2D15
:10445000E02E992069F023E09222892D90FE03C07E
:10446000362D311B132F81FF03C0882D8E19E82EA6
:104470009A81190FEB81EE0EC101612F4E2D0E9422
:104480006F1DF3942F8138858C819D81280F391FF2
:1044900038872F83BA94F81409F0BECF0F5FAA941F
:1044A000071509F09FCF28960FB6F894DEBF0FBE10
:1044B000CDBFCF91DF911F910F91FF90EF90DF90D3
:1044C000CF90BF90AF909F908F907F906F905F90B4
:1044D0004F903F902F900895DC01FB0184918F5FF6
:1044E00014968C931497319684918F5F15968C93C4
:1044F000159731965F96FC93EE935E9708953F92E1
:104500004F925F926F927F928F929F92AF92BF92E3
:10451000CF92DF92EF92FF920F931F93CF93DF938F
:10452000EC01862EA42E422F102F38A023E526174B
:104530000CF4ABC03FE23A150CF4A7C0C02EDD244A
:104540008C8190E001979C01C29EC001C39E900D9A
:10455000D29E900D1124262F332727FD3095820FF0
:10456000931F181619060CF090C08D8190E09C01E5
:10457000C29EC001C39E900DD29E900D11242A2D83
:10458000332727FD3095820F931F181619060CF05C
:104590007CC09924442E55246DC09C01215030408C
:1045A0004217530711F460E00EC0429EC001439EC3
:1045B000900D529E900D1124840F951FEE8DFF8D4E
:1045C000E80FF91F64914C9DC0014D9D900D5C9DBD
:1045D000900D1124682C680EBB24792C780C3FC0F8
:1045E000E62EFF2460FF19C0113039F44B2D4A0D1F
:1045F000CE01672D0E946F1D2EC02C9DC0012D9DE8
:10460000900D3C9D900D11244A2D480FCE01662D32
:10461000212F012F0E94241E1EC099A188A1981746
:10462000D1F098A3113039F44B2D4A0DCE01672DEE
:104630000E946F1D0FC02C9DC0012D9D900D3C9DB3
:10464000900D11244A2D480FCE01662D212F012FE8
:104650000E94241E38A2F594E7946E2DB3942B2D5E
:10466000332727FD30958D8190E0281739070CF40A
:10467000B7CF9394492D552747FD50958C8190E0F5
:10468000481759070CF489CF38A2DF91CF911F91B9
:104690000F91FF90EF90DF90CF90BF90AF909F90E1
:1046A0008F907F906F905F904F903F9008950F9301
:1046B000CF93DF93EC01262F6A3049F48D819885E2
:1046C000899F802D11249A85980F9A8726C06D3076
:1046D00029F169854A8508850E947F229C81688529
:1046E000969F402D11248985480F49878F81882303
:1046F000A9F0552747FD5095699F9001112484E545
:1047000090E0821B930B8417950744F49D81699F69
:10471000902D11248A85890F8A87198681E090E07F
:10472000DF91CF910F9108951F93CF93DF93EC0109
:10473000162FF8948F8560E00E946A3388891816D6
:104740001CF460E00E946A331EBD0DB407FEFDCF6D
:104750008EB5888918161CF461E00E946A3378943B
:10476000DF91CF911F910895FF920F931F93CF93E5
:10477000DF93EC018C858F5F8C87FF2400E010E0D5
:104780006F2D6064CE010E949423CE0160E80E94E8
:1047900094238F8561E00E946A33888918161CF47F
:1047A00060E00E946A33F801E652FD4F90E080819C
:1047B0008EBD0DB407FEFDCF8EB59F5F319694354B
:1047C000B1F7888918161CF461E00E946A33F394EB
:1047D0000C5A1F4F86E0F81699F6CE0160E40E944D
:1047E0009423DF91CF911F910F91FF900895CF9364
:1047F000DF93DC0188EF91E0EAEDF2E0EF019C014C
:10480000199221503040E1F719961C9219971A9687
:104810001C92DF91CF910895EF920F93CF93DF9386
:10482000EC014E876D872F87E98A088B81E08887A6
:1048300088A319A28F83CE0169E77CE00E946C22D5
:104840000E943D1C81E00E941E1C85E00E942C1CE1
:104850008CE00E94271C8E8561E00E94FE328D85CF
:1048600061E00E94FE328F8561E00E94FE328989FC
:1048700018161CF461E00E94FE32888918161CF498
:1048800061E00E94FE32898918166CF460E00E9493
:104890006A336AE070E080E090E00E941B32898910
:1048A00061E00E946A33ED852E2F332727FD309576
:1048B000F901EB54F04FE491F0E0EE0FFF1FEF55DC
:1048C000F04F859194919D8B8C8B2753304FF9013C
:1048D00084918B8FEE852E2F332727FD3095F9019C
:1048E000EB54F04FE491F0E0EE0FFF1FEF55F04F67
:1048F000859194919B8B8A8B2753304FF90184913A
:104900008A8FE8892E2F332727FD3095F901EB5444
:10491000F04FE491F0E0EE0FFF1FEF55F04F85915F
:1049200094919F8B8E8B2753304FF90184918C8FFC
:10493000EF852E2F332727FD3095F901EB54F04FEB
:10494000E491F0E0EE0FFF1FEF55F04F8591949149
:10495000998F888F2753304FF90184918D8FCE0125
:1049600061E20E949423CE0164E10E9494238B852E
:1049700087FF02C08FE78B876B856068CE010E943E
:104980009423CE0160E20E949423CE016CE00E9449
:104990009423CE010E94B423DF91CF910F91EF9029
:1049A0000895FC01EC57FF4F61937193445F40837E
:1049B0000895CF93DF93DC01E0E8F7E785919491C8
:1049C000ED01C75ADF4FAD0140595F4F8150904C08
:1049D00009F04EC0E6E9F7E7E491E883E7E9F7E795
:1049E000E4911496EC931497E8E9F7E7E4911596AF
:1049F000EC931597E9E9F7E78591949117969C93C5
:104A00008E931697EBE9F7E78591949119969C930D
:104A10008E931897EDE9F7E7E4919B96EC939B97BB
:104A2000EEE9F7E7E4919A96EC939A97EFE9F7E7C6
:104A3000E491EA01E883E0EAF7E7859194915D96D5
:104A40009C938E935C97E2EAF7E7859194915F9649
:104A50009C938E935E97E4EAF7E785919491919603
:104A60009C938E939097E6EAF7E78591949132C0F4
:104A70008CE3888314961C9214972FEF15962C9331
:104A8000159780E293E017969C938E93169784ED8A
:104A900093E019969C938E93189781E09B968C9344
:104AA0009B979A968C939A97FA0120838CEA9DE0C3
:104AB0005D969C938E935C978EED9DE05F969C93A4
:104AC0008E935E9784E79EE091969C938E93909749
:104AD0008CE39FE093969C938E939297DF91CF9176
:104AE00008958F929F92AF92BF92CF92DF92EF92F2
:104AF000FF920F931F93DF93CF93CDB7DEB7260FAF
:104B0000371FE216F30694F4AE0CBF1C6A157B0542
:104B10006CF4040F151FC016D10644F480E08C0C11
:104B20009D1C481559051CF481E001C080E0CF911F
:104B3000DF911F910F91FF90EF90DF90CF90BF908A
:104B4000AF909F908F900895EF92FF920F931F93D5
:104B5000CF93DF937C018C01025B1F4FC8010E9441
:104B6000F723C80160E27EE00E940634C8010E947B
:104B7000B42383E00E942C1C86E391E0EEEFFFE378
:104B8000099584E590E0E80EF91EF7011082C8014E
:104B90006BEF7DE00E945134C8010E94B423E7010D
:104BA000CA54D040CE010E94471DCE0164E00E944D
:104BB0001F1D882339F462E370E080E090E00E94DA
:104BC0001B32F0CFDF91CF911F910F91FF90EF90AB
:104BD0000895AF92BF92CF92DF92EF92FF920F9320
:104BE0001F93CF93DF93EC01CA57DF4F8881C658DC
:104BF000D040882309F44AC08C3010F010E002C085
:104C00001CE0181BCA5ADF4F81E08883C655D0408C
:104C10006EE4C62ED12CCC0EDD1EC60160E00E94D3
:104C2000E41D53E5A52EB12CAC0EBD1EF50100818F
:104C30004DE2F42E4F2D401B410F0D5FC60160E089
:104C400024E533E0E32E0E94DC1FC60161E00E94F0
:104C5000E41DF5010081F01AF10E0D5FC60160E060
:104C60004F2D24E50E947E1FC95ADF4F84E08993AF
:104C7000F5018081181B115D1883AC9669917991BB
:104C8000C6010E940634888181508883DF91CF91CC
:104C90001F910F91FF90EF90DF90CF90BF90AF905A
:104CA0000895AF92BF92CF92DF92EF92FF920F934F
:104CB0001F93CF93DF93EC01E0E8AE2EB12CA80E4A
:104CC000B91EF501E080F180028113810E94E73175
:104CD000E61AF70A080B190B7FE7C72ED12CCC0E6A
:104CE000DD1EF601808190E0A0E0B0E08E159F050A
:104CF000A007B10708F081C08E0105581F4FF801C9
:104D000080819181A281B3810097A105B10509F449
:104D100074C00E94E731F6012081620F711D811D70
:104D2000911DF5016083718382839383FE01EF58A7
:104D3000FF4F80819181A281B3810196A11DB11D98
:104D400080839183A283B383F8011082118212823F
:104D500013820E94F531C958DF4F688379838A83B3
:104D60009B83C757D040CE010E945D1CCE010A969E
:104D70000E94471DCE0148960E94CF1C81E032C0A0
:104D80008E010B5D1F4FC8010E94E22BC8010E94DB
:104D9000592CC8010E943C2DCE010E94E925CE016C
:104DA0000E940A278E01025B1F4FC8010E94B42394
:104DB000CC5ADF4F8881C455D040882319F4C801EC
:104DC0000E94F7230E94F531C558DF4F688379832D
:104DD0008A839B83249728813981621B730B7A9382
:104DE0006A9380E0DF91CF911F910F91FF90EF9038
:104DF000DF90CF90BF90AF900895C558DF4F888166
:104E00009981AA81BB81CB57D0400097A105B105FC
:104E100041F7B6CFBF92CF92DF92EF92FF920F93FE
:104E20001F93CF93DF93EC018C8D9D8D892B09F41B
:104E3000A1C08E01025B1F4FC80161E040E00E94EB
:104E4000E81DFE01E95AFF4FCE5ADF4F85E59881F4
:104E5000891B808326961882C855D040698D6130A1
:104E600009F469C0613028F0888D653008F07CC095
:104E700076C0CE0185960E94942BCA5ADF4F81E0FE
:104E80008883C655D040C80169E77CE00E946C2247
:104E90001D8E1C8ECC5ADF4F1882C455D040AAE01C
:104EA000CA2ED12CCC0EDD1EBC2EED2EF8EAFF2E24
:104EB000CE010E9451268823D9F3C80168E67EE01E
:104EC0000E9406346A8D7B8DC8014AE050E00E9442
:104ED000F434C80163E57EE00E9406346F2D6295CC
:104EE0006F70C80170E04AE050E00E945735C80179
:104EF00068E47EE00E940634C60164E00E941F1D43
:104F00008823C1F5FA94A1F68B2D9E2D60E00E94B6
:104F1000581C83B7817F846083BF83B7816083BF60
:104F200083B7816083BF889583B78E7F83BF83B744
:104F30008E7F83BFBDCFCF58DF4F88819981AA81F3
:104F4000BB818F709070A070B0700897A105B105FB
:104F500018F4C80167E00CC0C80168E709C08823DD
:104F600049F06B5FC80104C0882321F0C8016FE2DB
:104F70000E942934DF91CF911F910F91FF90EF9004
:104F8000DF90CF90BF9008952F923F924F925F9203
:104F90006F927F928F929F92AF92BF92CF92DF9249
:104FA000EF92FF920F931F93DF93CF93CDB7DEB7AE
:104FB00062970FB6F894DEBF0FBECDBF6C016C8355
:104FC0007D834B8324E530E0C20ED31EF6011082B0
:104FD0002CEA3FEFC20ED31E3AE0A32EB12CAC0C4C
:104FE000BD1C25E2222E312C2C0C3D1C9EE4492EAA
:104FF000512C4C0C5D1C10E080E3782E66241A8244
:105000003FEF3983A601495A5F4F5F834E83C60144
:10501000885A9F4F99878887F601EA5AFF4FFB8786
:10502000EA8796012B5A3F4F3D872C8703E5802E58
:10503000912C8C0C9D1C5B81452F50E05F874E8727
:105040008B818150888BC6010E9451268823D9F319
:10505000C50164E00E941F1D882369F4C50165E055
:105060000E941F1D882339F4C50166E00E941F1DA0
:10507000882309F4D3C0F4010081C50164E00E94D3
:105080001F1D882329F0C1010E94992D1983CBC0CF
:10509000C1010E949F2DC7C0C50163E044E00E948A
:1050A000291D882321F01F5FC1010E94A52DC50184
:1050B00061E044E00E94291D882321F01150C101C4
:1050C0000E94A52D812F992787FD90952E853F85DC
:1050D0008217930711F410E002C017FD1889F4013C
:1050E0008081819F902D11248C5F682E691A28C0C1
:1050F000872D992787FD9095262D332727FD3095FD
:10510000821B930B0297D4F4898162960FB6F894B0
:10511000DEBF0FBECDBFCF91DF911F910F91FF90EA
:10512000EF90DF90CF90BF90AF909F908F907F9047
:105130006F905F904F903F902F900895F1E0FA8329
:10514000862D992787FD9095272D332727FD3095AC
:10515000820F931F62E070E00E94F837762EEE8196
:10516000FF811082E885F985608321E0EA85FB856F
:105170002083EC85FD8510822C813D81C9019A8BAD
:10518000898B00E0E12EFF24E7FCF09420C0802F03
:1051900090E08E159F0569F423E0EE81FF81208366
:1051A000F40180818E9D802D1124870DE885F9857D
:1051B0008083E989FA8965917491C2010E94513412
:1051C0000F5F29893A892E5F3F4F3A8B298B3B81AC
:1051D0000317E8F2C20160E00E94E41DF40140817F
:1051E0004E9D402D11244150470DC20160E024E541
:1051F0000E94081EC20161E00E94E41DF4010081CA
:105200000E9D402D11244250470D0D5FC20160E0FC
:1052100024E5B3E0EB2E0E947E1F15CFFA81FF2319
:1052200009F066CF39CF802F90E0909581959F4F00
:105230002E853F85AC01249FC001259F900D349F92
:10524000900D1124AEEF6A2E680E52CF2F923F922E
:105250004F925F926F927F928F929F92AF92BF9286
:10526000CF92DF92EF92FF920F931F93DF93CF9332
:10527000CDB7DEB72B970FB6F894DEBF0FBECDBF0C
:105280009B878A877A8369835C834B838C0100596F
:105290001F4FF8018081882309F422C18A859B85EC
:1052A0008A5A9F4F9B878A8781E0EA85FB858083A6
:1052B00012921292E455F040FB87EA87108E4EE47A
:1052C000E42EF12CEE0EFF1EC70161E00E94E41DEA
:1052D0003AE0232E312C8A859B85280E391E25E243
:1052E000622E712C680E791EE981FA81F491FD839A
:1052F000B7E58B2E912C880E991EA8E5CA2ED12CCD
:10530000C80ED91EF2E54F2E512C480E591E8D5A4B
:105310009F4F9F838E83E1E7AE2EB12C8A859B85BC
:10532000A80EB91E198708878A859B850E94512679
:105330008823D1F39D81992311F410E003C0EE81FD
:10534000FF811081C70160E040E026EA3EE00E9454
:1053500017208B819C81892B41F0145FC70160E08D
:10536000412F2B813C810E941720F40110828CE098
:10537000F6018083C70169817A810E940634F201B7
:10538000208130E0C901880F991F820F931F9095EB
:1053900081959F4F8D5AF4018083EE81FF8120819A
:1053A00030E0C901880F991F820F931F9095819556
:1053B0009F4F835DF6018083F501808184FF04C0E7
:1053C000C70166E27FE003C0C70162E27FE00E949E
:1053D0005134F201208130E0C901880F991F820FFA
:1053E000931F909581959F4F8D5AF4018083F6010C
:1053F00080818F5F8083EA85FB8582A5882321F0E9
:10540000C7016EE17FE003C0C7016AE17FE00E944F
:105410005134F201808190E09C01220F331F280F4C
:10542000391F309521953F4F2D5AF4012083F60105
:1054300080818F5F8083C70166E17FE00E945134E5
:10544000C10165E00E941F1D882351F0EA85FB859C
:1054500062A56F5FC3010E94AB2DC3010E94A52D01
:10546000C10164E00E941F1D882399F4E885F98535
:105470006081262F30E040E050E0F501808191818D
:10548000A281B38182179307A407B50708F16F3F84
:10549000F9F08A859B8580599F4F9B878A878FEF7C
:1054A000EA85FB858083E057F040FB87EA87C301EC
:1054B00060E00E94892BC3010E94992D81E0EA855A
:1054C000FB85808F0DC08A859B850E94A4252CCFEB
:1054D000C10166E00E941F1D882309F425CFF3CF88
:1054E0002B960FB6F894DEBF0FBECDBFCF91DF91E4
:1054F0001F910F91FF90EF90DF90CF90BF90AF90F2
:105500009F908F907F906F905F904F903F902F90E3
:105510000895AB016BE27FE00E9426290895AF92C7
:10552000BF92CF92DF92EF920F93CF93DF936C01F4
:105530008FE790E0C80ED91E82E3F601808381E0F8
:1055400090E0A0E0B0E0B293A293929382936F01B7
:1055500085EF9FEFC80ED91E8FEFF601808380E99B
:105560009FEFC80ED91EC6010E94D924C6010E9411
:10557000541CC6016FEF0E94581C6AE0A62EB12C85
:10558000AC0CBD1CC5010E940F1DC5010E94471D2A
:10559000C60148960E94C51CC601825B9F4F6DE004
:1055A0004BE020E10FE05EE0E52E0E940C24E601D6
:1055B000A596CE010E94B82DC50165E00E941F1D71
:1055C000882329F0CE0160E00E94AB2D06C0CE01F9
:1055D0006CE27FE040E00E94982BDF91CF910F9129
:1055E000EF90DF90CF90BF90AF9008950F93DC01C4
:1055F000002309F069C0623009F443C0633030F41D
:10560000662359F0613009F05FC00DC0633009F4C2
:1056100044C0643009F058C04CC04B3008F04AE038
:1056200056964C9351C0842F90E0880F991F1F9677
:105630002D913C915097280F391FF9018591949134
:1056400090969C938E935F97FC014591549114968C
:105650008C911497849F602D112491966C9391974F
:10566000252F3327862F90E02817390708F4652F58
:1056700014968C911497689F802D112492968C9388
:1056800023C014968C911497489F802D112459960D
:105690008C9359975A962C9317C014968C91149703
:1056A000489F802D11245B968C935B975C962C937E
:1056B0000BC014968C911497489F802D11245D96F1
:1056C0008C935D975E962C930F910895FC01222395
:1056D00071F4648B8481489F802D1124858B15A2E1
:1056E00014A213A281E0878B8093DB04108E0895AF
:1056F000FC01662369F4178A158A14A213A2108E7E
:105700001092DE041092DD041092DB041092B400BB
:105710000895CF93DF93EC01662319F40E94782B50
:105720001982DF91CF91089560E00E94892B08953E
:105730000F931F93CF93DF93EC018B01442371F4FC
:1057400060E00E94892B1E870D871B8A1A8A81E0E0
:10575000898389E08E8B198E1B8E1D8EDF91CF91F0
:105760001F910F910895CF93DF93EC01662339F5D4
:105770008881882321F18981882309F5898590E032
:10578000880F991FEF81F885E80FF91F8591949193
:105790002FEF8F3F920711F4188211C09C8790E081
:1057A000880F991FEA85FB85E80FF91F65917491B1
:1057B000CE0140E00E94982B89858F5F8987DF9119
:1057C000CF91089560E00E94B32B08950F93CF937B
:1057D000DF93EC01662309F068C08981882309F40E
:1057E00064C08D89882309F060C0EA89FB89EE0FC7
:1057F000FF1F4D855E85E40FF51F2591349121151E
:10580000310509F040C08989813031F41B8A1A8A38
:10581000FA012591349137C019828881882379F063
:10582000CE0160E00E94B32B8A899B89880F991F63
:10583000ED85FE85E80FF91F2591349124C0CE0136
:1058400060E00E94782B31C0E6E036952795EA9516
:10585000E1F76F70422F4F7175E0369527957A9575
:10586000E1F72051CE0100E00E94F62A8A899B8947
:1058700001969B8B8A8B880F991FED85FE85E80F1B
:10588000F91F25913491B9017695679576956795BD
:1058900020FDDACF6F73432FCE0120E00E94662BEC
:1058A0008A899B8901969B8B8A8BDF91CF910F917F
:1058B000089560E00E94E62B0895CF93DF93EC01FA
:1058C000662309F0D6C08F89882309F4D2C08D8958
:1058D000882321F4CE010E94782BCBC081508D8B80
:1058E0008DA1882309F03BC08BA19CA10196880F54
:1058F000991FEF8DF8A1E80FF91F85919491282F3A
:1059000027702EA3AC0163E0569547956A95E1F7A1
:105910009A0136952795892F9927869586958FA385
:105920002F738C81289F202D11242DA3417040932B
:10593000DF048BA19CA101969CA38BA329A130E03D
:105940008217930760F08AA1882329F0281B310968
:105950003CA32BA304C0CE0160E00E94782B8DA154
:1059600081508DA3988D9F5F988F2FA18C89280FD0
:105970008C85280F2A836B8D662369F0892F9927E0
:1059800087FD909570E00E94F8378C8D869F802D62
:105990001124820F8A838A8190E0CB966BE370E0BA
:1059A0000E94F8378A832E892B83698D662379F0CC
:1059B000888D772767FD7095992787FD90950E94C0
:1059C000F8378A8D869F802D1124820F8B836D8DF1
:1059D000662399F0888D992787FD909570E00E9445
:1059E000F837CB0162E070E00E94F8379E8D899F06
:1059F000802D11249B81890F8B838B818A300CF041
:105A000089E087FD80E08B838C898F3309F41B82CA
:105A1000F894EA81F0E0E05BF04FE491E093DC047D
:105A20002D8130E08B81992787FD9095A901489FB2
:105A30009001499F300D589F300D112488A590E0AA
:105A4000A901489F9001499F300D589F300D1124A6
:105A50008EA1992787FD9095AC01249FC001259FB9
:105A6000900D349F900D11248093DD048093DE040B
:105A70007894DF91CF91089560E00E945D2C0895A5
:105A80006091DD04662381F18091DA048F5F809359
:105A9000DA049091DC04891738F130E08091DB045E
:105AA000882309F431E03093DB041092DA0480910A
:105AB000DF048823A9F08091FF0123E4829FC001C5
:105AC0001124895B8093FF0190E070E00E94E4372D
:105AD0008093DE0405C08091DE048093B4000895B5
