:100000000C9422080C944A080C944A080C944A0850
:100010000C944A080C944A080C944A080C944A0818
:100020000C944A080C944A080C944A080C94402BEF
:100030000C944A080C944A080C944A080C944A08F8
:100040000C946A2F0C944A080C944A080C944A08A1
:100050000C944A080C944A080C944A080C944A08D8
:100060000C94BB2D0C944A08030A0A0A110AE20AEE
:10007000E20AE20AE20A180A2D0A420A490A500A6A
:10008000570A5E0A650A6C0AE20A730A880A9D0A20
:10009000A40AAB0AB20AB90AC00AC70AE20ACE0A1F
:1000A000DC0AD50A401E000000000000000000F835
:1000B000000673000000030406195C800000040CB5
:1000C0003A26530000000873A6484C000000088C34
:1000D000B44EA80000000451949EB40000000252E7
:1000E00016FCEE000000025A3E70E70000000CCB48
:1000F000380000000000318F0007FFFF0000470CB0
:1001000007F8000200003E038807FCFCFC00183CD6
:10011000CFF80500430007C30007757F4080380C07
:1001200001F555414C4040300615555F4A404C4062
:10013000686555414C40744EA985555F40804472B6
:10014000AA05D55F4480040EAA7415414A40087080
:10015000AA95D57F49200440ABB5577F58F004409D
:10016000A4277300F0700440A3E33001E0200320D3
:10017000A0E00000C00003E0E0000000000003E099
:10018000C0000000000000E00000000000000000CF
:10019000000000000000536C6176652064697363A1
:1001A0006F6E6E65637465640057726F6E6720735F
:1001B0006C61766520646174610031206D617374D7
:1001C0006572206D617800536C6176652070617591
:1001D00073656400402800000000C00040800000FB
:1001E0000000A000E08000000000CCE646C0000057
:1001F0000000A8EA48A018000000AEAE46A03C00EF
:100200000000000000007A000000E0000000FC0098
:100210000000E0000000F8000000ACCA0000B400DC
:100220000000A8AA00004EF00000AEAE00001CF2D4
:100230000000000000000AF4000000000000012897
:1002400000000000000000B000000000000000609E
:100250000000000000000020000003F0000000206B
:10026000000003D000000020000003D00000005078
:100270000000012000000090000003C0000001B059
:100280000000050000000FFFFC0005000000080052
:1002900004000500000009010600050000000B0134
:1002A000060002800000091B860002800000091180
:1002B000060002C000000BB1060FFFFC00000800A2
:1002C0000608000400000BA0061B808400000BA0A1
:1002D0000618808400000A20061BB1840000080074
:1002E000061A2A8400000800061BA98400000800E2
:1002F0000618000400000800061BB00400000800F7
:10030000061B900400000800061A180400000800EC
:10031000061800040000402800000000C0004080D3
:1003200000000000A000E08000000000CCE646C015
:1003300000000000A8EA48A018000000AEAE46A0E9
:100340003C000000000000007A000000E000000017
:10035000FC000000E0000000F8000000ACCA000053
:10036000B4000000A8AA00004EF00000AEAE0000ED
:100370001CF20000000000000AF400000000000071
:10038000012800000000000000B000000000000094
:1003900000600000000000000020000003F00000EA
:1003A0000020000003D000000020000003D0000067
:1003B00000500000012000000090000003C0000079
:1003C00001B00000050000000FFFFC000500000068
:1003D00008000400050000000901060005000000F7
:1003E0000B01060002800000091B8600028000004D
:1003F0000911060002C000000BB1060FFFFC00004F
:1004000008000608000400000BB0061B80840000F2
:100410000B900618808400000A18061BB1840000A7
:100420000800061A2A8400000800061BA9840000A0
:1004300008000618000400000800061BA0040000C5
:100440000800061BA00400000800061A2004000093
:100450000800061800040000400564A6C4EA84EE03
:100460004A608AA8AA4A8A44AA808AE8CE4A8E4468
:10047000AE408AEAAA4A8A44AE2064A6AA4EEA4E50
:100480004AC0180564CCA08AAAA04ACC402AAA4037
:10049000C4AA401000583000000000000000000016
:1004A00000006207FFFFFC03FFFFFE0CE0560404A0
:1004B0000404020202020A2062040404040202028A
:1004C000020CE0420404040402020202088047070E
:1004D000FFFFFC03FFFFFE08E0000000000000003B
:1004E00000000000318C0000000000000318C04A2A
:1004F0005200000000000004A5204A520000000045
:10050000000004A520318C0000000000000318C08A
:1005100000000000000000000000000000000000DB
:1005200000000000000000000000000000000000CB
:1005300000000000000000000000000000000000BB
:1005400000000000000000000000000000000000AB
:10055000000000000000000000000000000000009B
:10056000000000000000000000000000000000008B
:10057000000000000000000000000000000000007B
:10058000000000000000000000000000000000006B
:10059000000000000000000000000000000000005B
:1005A000000000000000000000000000000000004B
:1005B000000000000000000000000000000000003B
:1005C000000000000000000000000000000000002B
:1005D000000000000000000000000000000000001B
:1005E000000000000000000000000000000000000B
:1005F00000000000000000000000000000000000FB
:1006000000000000000000000000000000000000EA
:1006100000000000000000000000000000000000DA
:1006200000000000000000000000000000000000CA
:1006300000000000000000000000000000000000BA
:1006400000000000000000000000000000000000AA
:10065000000000000000000000000000000000009A
:100660000000000000FFFFFFFFFFFFFFFFFFFFF0A4
:10067000800000000000000000001080000000006A
:1006800000000000001080000000000000000000DA
:1006900010D555555555555555555550FFFFFFFF2C
:1006A000FFFFFFFFFFFFF0280CF03007EFC088507E
:1006B00005A840B49005AB40B55005AB40B5D0059A
:1006C000AB408DD0046B40B85005AB40B05005AB8B
:1006D00040A1D805AB40A10805A840E1F807EFC04C
:1006E000E1F807EFC0280CF1F807EFC0890805A86A
:1006F00040B5E805AB40B5E805AB40B5E805AB4013
:100700008D08046B40B97805AB40B17805AB40A1CA
:100710007805AB40A10805A840E1F807EFC0E1F873
:1007200007EFC0300CFBEFDF807EFC8A2850805A38
:1007300084DB6857805AB4DB6857805AB4514B57F2
:10074000805A84514B50805ABC514B57805ABC51EF
:100750004B57805AA0514B57805AA0522B50804281
:10076000A073EFDF807EE073EFDF807EE041594FC2
:10077000554B454E00AC0CBA0C080C7878782070BC
:10078000A8EC202050486C080C007878782070A8DD
:10079000EC2050486C080C78787870A8EC20202465
:1007A000DC8000080C7878782070A8EC20202020CD
:1007B00030100C78007800780030007C00A000E059
:1007C0001020F03F0040008000C000100C7800783E
:1007D00000780020007FF0A000E000200020005002
:1007E0000048006C00100C78007800780020006051
:1007F00000FF802C0020002000500048006C000802
:1008000006787820FC486C1006780078002000FC00
:1008100000480047C0080C787878242478A0A038D5
:10082000448400100C7800780078002400240078BC
:1008300000A000A0003FE04000800000001004E0A5
:1008400000E000EF80FC70080D00F0F0F048784008
:10085000784840A0A0F00806F87CCCCC7CF80806CC
:1008600038C4B4B4C438080C7858782070A8EC2088
:100870002050486C080C005878782070A8EC205064
:10088000486C080C78587870A8EC202024DC800094
:10089000080C7858782070A8EC2020202030100C0C
:1008A00078005800780030007C00A000E01020F0B4
:1008B0003F0040008000C000100C78005800780015
:1008C00020007FF0A000E000200020005000480041
:1008D0006C00100C78005800780020006000FF8049
:1008E0002C0020002000500048006C0008067858BA
:1008F00020FC486C1006780058002000FC004800DE
:1009000047C0080C785878242478A0A03844840084
:10091000100C780058007800240024007800A00013
:10092000A0003FE04000800000001004E000E00074
:10093000AF80FC70200CFDF7EFDF85142B51BDB5A7
:10094000EB5BBDB5EB5BBCA50B4A84A5E84ABCA537
:100950002B4ABCA5AB4AA0A5AB4AA1142B4AE1F790
:10096000EFCEE1F7EFCE080C182848A8E8E82828D1
:10097000EC84FCFC080CFC84F4F4F484BCBCBC8463
:10098000FCFC080CFC84F4F4F484F4F4F484FCFC23
:100990000805E0A0A0A0E0080540C04040E0080530
:1009A000E020E080E00805E020E020E00805A0A0CD
:1009B000E020200805E080E020E00805E080E0A0DD
:1009C000E00805E0202020200805E0A0E0A0E008E5
:1009D00005E0A0E020203028FFFFFFFFFFF08000AF
:1009E00000000010800000000010A98001C000106D
:1009F000AA0007E00010A9001FF00010A8807FD80F
:100A000000109320FFC800108000FFC800109B005A
:100A1000FFC80010A2817FF00010A3017F800010AA
:100A2000AA813F8000109B011F0000108000E3603E
:100A30000010800003E0001080000FF00010800024
:100A40000FF1E010800007E3781080000703EC103E
:100A5000800000031C10800000639CD080000073A5
:100A6000FDD080000039FB9081F0001CF710807CE5
:100A7000000ECE1081F00007FC1080E00003F010A3
:100A800080600001C01080400001801080000001E3
:100A900080109FFFC0018010A00020018010A1FCE9
:100AA00020030010A5E4200F8010ADF5A01EC0109B
:100AB000A5FC2038C010A1FC2070C010FFFFFFFF74
:100AC000FFF0FFFFFFFFFFF03028FFFFFFFFFFF009
:100AD000800000000010800000000010800001C0B5
:100AE0000010800007E0001080001FF00010800060
:100AF0007FD800108000FFC800108000FFC80010E1
:100B00008000FFC8001087C17FF0001081F17F8056
:100B1000001087C13F80001083811F00001081807A
:100B2000E3600010810003E0001080000FF000106F
:100B300083C00FF1E01087E007E378108DD0070342
:100B4000EC108FF000031C108E1000639CD08FF00F
:100B50000073FDD0FFE00039FB90FFE0001CF710B0
:100B60008420000ECE1084200007FC108420000397
:100B7000F01080000001C010800000018010800093
:100B800000018010800000018010BAA3B80180101D
:100B9000BAA110030010AAA1100F8010AAA1101E64
:100BA000C010A9393838C01080000070C010FFFF95
:100BB000FFFFFFF0FFFFFFFFFFF03028FFFFFFFF09
:100BC000FFF0800000000010933B92980010AA9163
:100BD0002AA00010AB112B900010AA112B88001036
:100BE000921392B00010800000001C1080000000E2
:100BF0001C10800000073E7080000007FFF080009E
:100C00000007FFF080000003BEF080000003FFF04B
:100C100080038E07FFF080038E1FE3F08003FE1F2A
:100C2000E3F08003FE1FE3F08007FF07FFF0807F03
:100C3000FFF3FFF0807DFDF3BEF0807FFFF7FFF054
:100C40008E1F8FC7FFF09E1F8FC73E70FE7FFFF085
:100C50001C10FC7FFFF01C10FE7DFDF00010FF0F4C
:100C6000FF800010DF07FF000010FFF3FE00001000
:100C7000FFF3FE000010FFF38E000010FF838E00D4
:100C80000010DF8000000010FF0000000010FFC017
:100C900000000010FFC000000010FFC000000010A6
:100CA000FFFFFFFFFFF0FFFFFFFFFFF0486F7374D0
:100CB00020286D617374657229004A6F696E20285F
:100CC000736C617665290003053F213F1208120A03
:100CD000100A0E1C0E0C1E0C141A14161F161E13CE
:100CE0001E1E1B1E1E1F1E3F213F3A2F3A173D1787
:100CF0003F213F181F02040A041F0E04040E1F0A9E
:100D00001F0A0E0E1F04110E2E252E2F2A2E262905
:100D100029021F02081F08150E04040E150E1515D2
:100D20001B151B040604040C04000000001700033C
:100D300000031F0A1F16371A1904130A153A000375
:100D400000000E11110E000A040A040E0400300007
:100D50000404040010001804031F111F121F101DAB
:100D6000151711151F07041F17151D1F151D01014C
:100D70001F1F151F17151F000A00003200040A115B
:100D80000A0A0A110A040115020E11171E051E1F78
:100D9000150A0E110A1F110E1F15111F05010E1144
:100DA0001D1F041F111F1108100F1F041B1F1010FF
:100DB0001F061F1E040F0E110E1F09060E112E1FF7
:100DC000051A121509011F011F101F0F180F1F0C04
:100DD0001F1B041B031C03191513001F1103041808
:100DE000111F000201022020200001020C121E1F10
:100DF000120C0C12120C121F0C1A14041E05242AB9
:100E00001E1F021C141D1020201D1F0814111F106E
:100E10001E041E1E021C0C120C3E0A040C123E1E66
:100E2000040214160A020F120E101E0E100E1E08D7
:100E30001E120C1226281E322A26041E21001F0014
:100E4000211E040102013F213F0A4E6F205344201E
:100E500063617264206F720A6E6F204C4F4144458B
:100E6000522E4845580A0A153A45786974001D20E3
:100E7000466C617368696E670A20206C6F616465F7
:100E8000722E2E2E0A0A444F4E2754205455524E8D
:100E9000204F464621000A0A153A49676E6F72656F
:100EA000006D560A0A504C45415345205455524E48
:100EB000204F464620004C4F572042415454455243
:100EC00059212000177361766500166261636B001B
:100ED0001574797065000A0A0A153A6F6B617920FA
:100EE000163A6564697400596F7520656E74657291
:100EF00065640A00540A03E181867F3E186D830F02
:100F00000F0E0183866033186DC3198F1803C38ECB
:100F10006033186DE330CF1803C39E603630CDE3E5
:100F200060CF3006C79E7E3E30CDB360CF300CC65A
:100F3000F6603330D9B660CF33CFCCF66061B0DB2A
:100F40001E60CF30D86CE6C061B0DB1E618F19988F
:100F50006CC6C063B19B0E330F0FB078C6FF7E1F07
:100F60001B061E0F175344001613780016131400A7
:100F7000151020001520100000000500893008021F
:100F80003802497868140000450068010000050037
:100F90006801380100000500380168010000F6E82A
:100FA000DBCFC3B8AEA49B928A827B746E68625C0E
:100FB00057524E4945413E3A3734312E2C29272588
:100FC00023211F1D1C1A1917161514131211100FA7
:100FD0000E0D0C0B0A09080706DD0FE10F0101F7E2
:100FE000030101FF0300000000240027002A000085
:100FF000000000250028002B000000000023002630
:10100000002900040404040404040402020202028D
:1010100002030303030303010204081020408001BC
:10102000020408102001020408102000000007003C
:1010300002010000030406000000000000000000A0
:10104000A309322C11241FBECFEFD8E0DEBFCDBFE5
:1010500013E0A0E0B1E0E2E4FDE602C005900D92ED
:10106000AE3BB107D9F717E0AEEBB3E001C01D927C
:10107000A933B107E1F710E1C4E4D0E104C022973D
:10108000FE010E940336C034D107C9F70E9498318F
:101090000C949F360C940000AF92BF92CF92DF92D7
:1010A000EF92FF920F931F93109241011092420111
:1010B00020E030E040E051E42093430130934401CC
:1010C00040934501509346010F2EF0E0AF2EF0E023
:1010D000BF2EF8E2CF2EF2E4DF2EF02DA0924701D2
:1010E000B0924801C0924901D0924A010F2EF0E01F
:1010F000EF2EF0E0FF2EF0E00F2FF0E01F2FF02D8D
:10110000E0924B01F0924C0100934D0110934E017F
:10111000E0924F01F092500100935101109352015F
:10112000FCE0F0935301E8E0E093540194E69093DF
:1011300081019093820162E06093830175E0709376
:1011400084011092850160938601109288011092AB
:1011500096011092970120E030E048E852E4209395
:1011600098013093990140939A0150939B01A0926A
:101170009C01B0929D01C0929E01D0929F01E0928D
:10118000A001F092A1010093A2011093A301E092AB
:10119000A401F092A5010093A6011093A701F0937A
:1011A000A801E093A9019093D6019093D701609391
:1011B000D8017093D90191E09093DA016093DB013B
:1011C0001092DD01882321F0109289011092DE0136
:1011D00081E08093550410924504109246041092C9
:1011E0004704109248041092490410924A041F9137
:1011F0000F91FF90EF90DF90CF90BF90AF90089548
:1012000081E00E944C0808951F931092D60383E05A
:101210008093EB0111E010934D0410934E04109253
:10122000510410924F04109250041092570482E01F
:1012300080938A030E9400098EE180934B0480E52D
:101240008093540410924C04109252041092530450
:10125000109356041F9108951F938091540488237E
:1012600019F081508093540480914C04882369F4D0
:1012700080915404833121F48DE08093520405C0A1
:10128000882319F481E080934C0480914C048130D0
:1012900051F480914B04882331F483E080934C0413
:1012A0008CE38093540480918101882321F0809104
:1012B000D601882351F480914C04823031F082E0D1
:1012C00080934C048CE38093540410914C041130AF
:1012D000C1F460912F047091300480913104909199
:1012E000320424E130E040E050E00E94C435611552
:1012F00071058105910529F480914B0481508093FB
:101300004B041250123068F4809154048E3120F056
:101310008E518093530405C0882319F484E0809390
:101320004C041F91089580E00E944C088EE1809348
:101330004B0480E58093540410924C0410925204A4
:1013400010925304089510920F0410920E0489EA2B
:1013500093E090930D0480930C0408950F931F93D2
:101360001092150480916504809316040CE014E03B
:10137000C80160E071E00E942333C8016CE071E0B5
:101380000E94233310921504809165048E5C809333
:101390001604C8016AE171E00E942333C80169E2C2
:1013A00071E00E942333809165048150809365042D
:1013B0001F910F9108958EEB93E064EA70E00E9414
:1013C00054280E94040982E38093650408951F93C2
:1013D00011E0F8C01093580486EB96E00E94D02BE1
:1013E000992787FD9095A92FB92FFC013397EE31EE
:1013F000F10508F0E7C0EC5CFF4FEE0FFF1F059012
:10140000F491E02D099486EB96E00E94D02B809316
:10141000EB01D8C086EB96E00E94D02B80934C0461
:10142000D1C086EB96E00E94D02B80935404CAC0B2
:1014300086EB96E00E94D02BAA2797FDA095BA2FA5
:10144000BC01CD010E945B34609343017093440161
:101450008093450190934601B5C086EB96E00E94CB
:10146000D02BAA2797FDA095BA2FBC01CD010E94D1
:101470005B346093470170934801809349019093D6
:101480004A01A0C086EB96E00E94D02B80934101D8
:1014900099C086EB96E00E94D02B8093420192C0C7
:1014A00086EB96E00E94D02B809353018BC086EB95
:1014B00096E00E94D02B8093540184C086EB96E086
:1014C0000E94D02B809381017DC086EB96E00E9424
:1014D000D02B8093890176C086EB96E00E94D02BBA
:1014E000809385016FC086EB96E00E94D02BAA27DF
:1014F00097FDA095BA2FBC01CD010E945B3460938B
:1015000098017093990180939A0190939B015AC01E
:1015100086EB96E00E94D02BAA2797FDA095BA2FC4
:10152000BC01CD010E945B3460939C0170939D01CE
:1015300080939E0190939F0145C086EB96E00E94A8
:10154000D02B809396013EC086EB96E00E94D02B74
:101550008093970137C086EB96E00E94D02B809352
:10156000A80130C086EB96E00E94D02B8093A901A1
:1015700029C086EB96E00E94D02B8093D60122C032
:1015800086EB96E00E94D02B8093DE011BC086EB99
:1015900096E00E94D02B8093DA0114C086EB96E08F
:1015A0000E94D02B809352040DC086EB96E00E94DF
:1015B000D02B8093530406C086EB96E00E94D02B7C
:1015C00080934B0486EB96E00E94C72B892B09F091
:1015D00001CF81E080935104109250041F9108952F
:1015E00089E28093590480914504882311F480E3B3
:1015F00001C081E380935A048AE280935B04809166
:101600004604882311F480E301C081E380935C04E5
:101610008BE280935D0480914704882311F480E37A
:1016200001C081E380935E048CE280935F0480912B
:101630004804882311F480E301C081E380936004AF
:101640008DE28093610480914904882311F480E342
:1016500001C081E3809362048EE2809363048091F1
:101660004A04882311F480E301C081E38093640479
:1016700080914F048823C9F081E0809359048093BE
:101680005A0480935B0480935C0480935D04809390
:101690005E0480935F048093600480936104809370
:1016A0006204809363048093640480914D048823D2
:1016B000C9F082E08093590480935A0480935B04BC
:1016C00080935C0480935D0480935E0480935F0448
:1016D0008093600480936104809362048093630428
:1016E00080936404109245041092460410924704BB
:1016F000109248041092490410924A0429E534E0FB
:10170000D9010D900020E9F71197A21BB30BE091CE
:10171000B606F091B7060280F381E02D86EB96E0E5
:10172000B901AD01099508951092580410924F0423
:1017300006C061E070E080E090E00E94E62F8091BA
:1017400051048823B1F31092580410925104089563
:101750000F931F9306EB16E0C80162E070E00E9451
:10176000F12CC80167EE79E00E94282CC80160EFD7
:101770007AE00E942D2C1F910F9108950F931F93D3
:1017800006EB16E0C80162E070E00E94BD2BC801C4
:1017900063E00E947A2CC8016091EB010E947A2CD0
:1017A000C80164E00E947A2CC80160914C040E9438
:1017B0007A2CC80165E00E947A2CC801609154041B
:1017C0000E947A2CC8010E94BD2CC80162E070E022
:1017D0000E94BD2BC8016EE10E947A2CC801609165
:1017E00052040E947A2CC8016FE10E947A2CC80131
:1017F00060914B040E947A2CC80160E20E947A2C0E
:10180000C801609153040E947A2CC8010E94BD2C2B
:10181000C80162E070E00E94BD2BC8016AE00E942E
:101820007A2C60914301709144018091450190911F
:1018300046010E942D349B01AC01C801622F0E9419
:101840007A2CC8016BE00E947A2C6091470170915C
:1018500048018091490190914A010E942D349B01D9
:10186000AC01C801622F0E947A2CC8016CE00E9472
:101870007A2CC801609141010E947A2CC8016DE068
:101880000E947A2CC801609142010E947A2CC80102
:101890006EE00E947A2CC801609153010E947A2C5C
:1018A000C8016FE00E947A2CC801609154010E9427
:1018B0007A2CC80160E10E947A2C6091810177271F
:1018C00067FD7095C8010E947A2CC80161E10E94F1
:1018D0007A2CC801609189010E947A2CC80162E1CA
:1018E0000E947A2CC801609185010E947A2CC8015F
:1018F0000E94BD2CC80162E070E00E94BD2BC801AF
:1019000064E10E947A2C6091980170919901809114
:101910009A0190919B010E942D349B01AC01C8015A
:10192000622F0E947A2CC80165E10E947A2C609196
:101930009C0170919D0180919E0190919F010E9458
:101940002D349B01AC01C801622F0E947A2CC80182
:1019500066E10E947A2CC801609196010E947A2C5F
:10196000C80167E10E947A2CC801609197010E942A
:101970007A2CC80168E10E947A2CC8016091A80104
:101980000E947A2CC80169E10E947A2CC8016091FA
:10199000A9010E947A2CC8016AE10E947A2C609108
:1019A000D601772767FD7095C8010E947A2CC8017F
:1019B0006BE10E947A2CC8016091DE010E947A2CB2
:1019C000C8016CE10E947A2CC8016091DA010E9482
:1019D0007A2CC8010E94BD2C1F910F910895CF93BE
:1019E000DF93FC01EC01CF5ADF4F8881861701F1AC
:1019F000AF014E5A5F4FDA018C939F012D5A3F4F32
:101A0000D9018C93EC5AFF4F80836883653081F451
:101A1000FA018081833061F48C91823049F48EEB3D
:101A200093E06DE677E045E00E949C2281E001C0F2
:101A300080E0DF91CF910895CF93DF93EC01C05CFC
:101A4000DF4F8881C054D0408823B1F0CA5BDF4F9C
:101A50008881C654D04018167CF0CE0162E00E9406
:101A6000EF0C85E08883E8A5F9A5E491EB8BE8A568
:101A7000F9A53196E491EA8BDF91CF910895CF9348
:101A8000DF93EC01CA5BDF4F8881C654D040181643
:101A900034F1C05CDF4F8881C054D0408823F9F016
:101AA000CE0161E00E94EF0CDE01A95BBF4F8C917B
:101AB0008823A9F487E08883E8A9F9A9E491EB8B4E
:101AC000E8A9F9A93196E491EA8B81E08C9380E052
:101AD00090E0A0E4B0EC8E879F87A88BB98BDF9154
:101AE000CF910895CF92DF92EF92FF920F931F93C1
:101AF000DF93CF93CDB7DEB7C555D0400FB6F8947E
:101B0000DEBF0FBECDBF8C01005C1F4FD8018C9192
:101B100000541040882309F48FC00C5B1F4FF8015C
:101B2000808104541040882311F064E001C063E018
:101B3000C8010E94EF0C095B1F4FD8018C9107541C
:101B400010408823D1F50C5B1F4FF80180810454AD
:101B50001040F801EA5BFF4F813081F4075B1F4FB3
:101B600082E0D8018C9309541040808118160CF43F
:101B700063C080E090E0A0E8BFE308C08081181651
:101B80000CF45AC080E090E0A0E4B0E4F801828751
:101B90009387A487B587DE011196F80185E501904A
:101BA0000D928150E1F7FE01EA5BFF4F808118162C
:101BB00054F181E0D8018C9326C00A5B1F4FF801D5
:101BC0008081065410401816BCF1D8011A96CD90A9
:101BD000DD90ED90FC901D97C701B60120E030E04C
:101BE00040E450E40E94243488236CF4C701B60119
:101BF0002DEC3CEC4CEC5DE30E94C033F8016287B5
:101C0000738784879587D801EC91AE2FB0E0159645
:101C1000AA0FBB1FAA0FBB1FA00FB11F8D919C91D4
:101C20001197FC018491F801838BED91FC91319621
:101C3000E491D8015296EC93CB5ADF4F0FB6F8944B
:101C4000DEBF0FBECDBFCF91DF911F910F91FF90EF
:101C5000EF90DF90CF900895CF92DF92EF92FF92B6
:101C60000F931F93DF93CF93CDB7DEB7C555D04009
:101C70000FB6F894DEBF0FBECDBF8C01005C1F4FC6
:101C8000D8018C9100541040882309F48FC00C5B5C
:101C90001F4FF801808104541040882311F063E045
:101CA00001C064E0C8010E94EF0C095B1F4FD8011E
:101CB0008C91075410408823D1F50C5B1F4FF8011D
:101CC000808104541040F801EA5BFF4F882381F4BF
:101CD000075B1F4F82E0D8018C930954104080812C
:101CE00018160CF463C080E090E0A0E8BFEB08C0D9
:101CF000808118160CF45AC080E090E0A0E4B0ECAB
:101D0000F80182879387A487B587DE011196F801D1
:101D100085E501900D928150E1F7FE01EA5BFF4FEE
:101D20008081181654F181E0D8018C9326C00A5B9B
:101D30001F4FF8018081065410401816BCF1D801DD
:101D40001A96CD90DD90ED90FC901D97C701B601DD
:101D500020E030E040E450EC0E940B3518166CF4A3
:101D6000C701B6012DEC3CEC4CEC5DE30E94BF33A7
:101D7000F8016287738784879587D801EC91AE2F2D
:101D8000B0E01596AA0FBB1FAA0FBB1FA00FB11F73
:101D90008D919C911197FC018491F801838BED91B9
:101DA000FC913196E491D8015296EC93CB5ADF4FD7
:101DB0000FB6F894DEBF0FBECDBFCF91DF911F915C
:101DC0000F91FF90EF90DF90CF90089586EB96E013
:101DD0000E94D22C089520915704222319F4E2E0A6
:101DE000F0E003C0E22FF0E03197EE0FFF1FEC5759
:101DF000FC4F208131818CE094E068EE48E00E9445
:101E0000E21DE0915704F0E0EE0FFF1FEC57FC4F8E
:101E1000208131818CE094E066E142E00E94E21D85
:101E200020915704223019F4E0E0F0E003C0E22FE3
:101E3000F0E03196EE0FFF1FEC57FC4F208131810F
:101E40008CE094E064E448E00E94E21D08958CE098
:101E500094E060E040E025E934E00E94E21D8091DA
:101E60004C048230D1F0833061F18823A1F547E240
:101E700080915204481B8091540464E10E94913582
:101E8000E82FF0E0EE0FFF1FE451FE4F208131817B
:101E90008CE094E0642F42E11CC09091810180911C
:101EA000D6019817C1F040915304992319F025EEFB
:101EB00036E002C027EA36E04E5E8CE094E06DE149
:101EC00008C0409153044E5E8CE094E065E123E24B
:101ED00037E00E94E21DE0914B04F0E0EE0FFF1F9F
:101EE000EE0FFF1FEC50FE4F208131818CE094E01B
:101EF00067E241E00E94E21DE0914B04F0E0EE0F4A
:101F0000FF1FEE0FFF1FEA50FE4F208131818CE052
:101F100094E06AE241E00E94E21D089580918A0304
:101F2000882319F0815080938A0388EC93E060E065
:101F30000E94EA1A882341F080915704882311F403
:101F400082E011C081500FC088EC93E062E00E94F3
:101F5000EA1A882359F080915704823019F41092BC
:101F6000570408958F5F80935704089588EC93E099
:101F700064E00E94EA1A8823F1F080918A038823A2
:101F8000D1F480915704813059F410924D0410928D
:101F90004E0480934F040E94E60E0E94A80B07C0D7
:101FA00010924D0481E080934E0410924F04809172
:101FB00057048093EB01089588EC93E061E00E9460
:101FC000EA1A882339F488EC93E063E00E94EA1A65
:101FD000882341F090E080915604882309F491E031
:101FE0009093560488EC93E064E00E94EA1A8823F8
:101FF00009F181E00E944C088EE180934B0480E55A
:102000008093540410924C04109252041092530482
:1020100080915604882359F080914E04882319F04A
:102020001092EB01089581E08093EB01089583E025
:102030008093EB01089580918901833039F48CE01D
:1020400094E06CE048E024ED31E006C08CE094E0E0
:102050006CE048E026E133E00E94E21D90914D04DF
:10206000992321F480914E04882331F080918901D5
:10207000833051F0992379F480914E04882359F4E8
:102080008091DE01833039F48CE094E06AE041E035
:1020900028E534E006C08CE094E06AE041E022E804
:1020A00034E00E94E21D88E280931504809156047A
:1020B000882311F088E001C08EE0809316048CE044
:1020C00094E063E974E00E94D13108958F929F9269
:1020D000AF92BF92CF92DF92EF92FF920F931F9336
:1020E000162FE82EFF2433EE832E33E0932E2DE8B7
:1020F000C22E23E0D22E93E0EE0CFF1C9A95E1F75E
:102100005601AE0CBF1CC40160E0F501468120E021
:10211000012F0E94C128C40161E0F501408120E047
:102120000E94C128F601EE0DFF1D24812195C401F6
:1021300062E0F50145810E94C128CE0CDF1CF6014A
:1021400022812A53C40163E0F50143810E94C12822
:10215000C401F50161814781212F0E9431291F911E
:102160000F91FF90EF90DF90CF90BF90AF909F9036
:102170008F900895CF93DF93EC01C05CDF4F88818F
:10218000C054D040882309F448C0CA5BDF4F88811F
:10219000C654D04018160CF440C080E060E00E94A5
:1021A0006610CE0166E00E94EF0C8881853049F40C
:1021B00086E08883CB5BDF4F82E08883C554D040C4
:1021C00011C0C95BDF4F8881C754D040FE01EB5B73
:1021D000FF4F882319F482E0808303C088E0808366
:1021E00082E08883CA5BDF4F85E08883C654D04095
:1021F000E881AE2FB0E01596AA0FBB1FAA0FBB1F38
:10220000AC0FBD1F8D919C911197FC0184918B8B1C
:10221000ED91FC913196E491EA8BDF91CF91089595
:102220000F931F93CF93DF93EC01C05CDF4F888146
:10223000C054D040882309F452C0CA5BDF4F888164
:10224000C654D04018160CF44AC081E060E00E94E9
:102250006610CE0165E00E94EF0C8881853049F45C
:1022600086E08883CB5BDF4F82E08883C554D04013
:102270001BC0C95BDF4F8881C754D0408E010B5B08
:102280001F4F882369F463E070E080E090E025E070
:1022900030E040E050E00E94A133688382E002C059
:1022A00088E08883F8018083CA5BDF4F83E08883FE
:1022B000C654D040E881AE2FB0E01596AA0FBB1FE0
:1022C000AA0FBB1FAC0FBD1F8D919C911197FC01F4
:1022D00084918B8BED91FC913196E491EA8BDF91A7
:1022E000CF911F910F9108950F931F9386EB96E066
:1022F00062E070E04CE050E00E94CE2C882309F4AC
:102300008AC01092500410924F0401E07CC086EB0A
:1023100096E00E94D02B182F8A3209F18B324CF4B0
:10232000823009F45FC0893271F0813009F064C0F5
:102330004FC08C3261F18C32F4F08D3299F18E32D3
:1023400009F05AC03AC086EB96E00E94D02BC197A4
:1023500009F059C086E991E00E943F0D54C086EB18
:1023600096E00E94D02BC19709F04DC086E991E01C
:102370000E941C0D48C086EB96E00E94D02BC197AE
:1023800009F041C086E991E00E942C0E3CC086EB2A
:1023900096E00E94D02BC197B1F586E991E00E94AA
:1023A000720D31C086EB96E00E94D02BC19759F593
:1023B00086E991E00E94101126C086EB96E00E940B
:1023C000D02BC19701F586E991E00E94BA101BC09D
:1023D0008EEB93E067EC71E042E00E949C22109348
:1023E0004F0411C08EEB93E06AEB71E042E00E9473
:1023F0009C2200934F0407C08EEB93E069EA71E0E2
:1024000042E00E949C2286EB96E00E94C72B892B1B
:1024100009F07DCF0CC08EEB93E066E971E042E0FD
:102420000E949C2281E080934F04809350041F916E
:102430000F9108950E9474110E94BE0B08951F937E
:10244000CF93DF93EC0180914C048130B1F560E0D3
:1024500070E080E090E024E630E040E050E00E9450
:10246000A133162F653120F4CE010E94101107C050
:10247000862F82548D3118F4CE010E94BA101F317C
:1024800070F4CC5BDF4F8881C454D040882321F4A2
:10249000CE010E94720D03C0CE010E942C0E812F2E
:1024A0008451853020F4CE010E943F0D06C01852A1
:1024B000153018F4CE010E941C0DDF91CF911F91B1
:1024C0000895CF93DF93EC0188EC93E062E041E064
:1024D0000E94F41A882321F0CE010E94720D0BC0D5
:1024E00088EC93E060E041E00E94F41A882319F040
:1024F000CE010E942C0E88EC93E061E00E94EA1A63
:10250000882321F0CE010E943F0D0BC088EC93E0A0
:1025100063E041E00E94F41A882319F0CE010E9482
:102520001C0D88EC93E064E00E94EA1A882321F0F5
:10253000CE010E9410110AC088EC93E065E00E9471
:10254000EA1A882319F0CE010E94BA10DF91CF91C8
:10255000089588EC93E062E041E00E94F41A882339
:1025600021F081E0809348040BC088EC93E060E0A8
:1025700041E00E94F41A882319F081E08093470417
:1025800088EC93E061E00E94EA1A882321F081E060
:10259000809345040BC088EC93E063E041E00E9427
:1025A000F41A882319F081E08093460488EC93E0C4
:1025B00064E00E94EA1A882341F081E060E00E9412
:1025C000661081E080934904089588EC93E065E00B
:1025D0000E94EA1A882339F080E060E00E946610C9
:1025E00081E080934A04089580914C04813011F475
:1025F0000E94A91208952F923F924F925F926F927C
:102600007F928F929F92AF92BF92CF92DF92EF9282
:10261000FF920F931F93DF93CF93CDB7DEB7289729
:102620000FB6F894DEBF0FBECDBF1C016B0122E4D4
:1026300030E0220E331ED1012C91EEEBFFEF2E0E77
:102640003F1E332727FD3095432F532F60912F04D2
:102650007091300480913104909132040E94C4350D
:10266000611571058105910541F4D10111968C9197
:1026700011978F5F817011968C93F101EA5BFF4F88
:102680008081181614F481508083F101EB5BFF4FB9
:102690008081181614F481508083F101E75BFF4FAD
:1026A0008081882311F081508083E0E4F0E02E0ED9
:1026B0003F1ED1018C91E0ECFFEF2E0E3F1E18164D
:1026C0000CF063C025E430E0220E331ED1018C9162
:1026D000EBEBFFEF2E0E3F1E882309F069C0D101FE
:1026E0008C91882309F464C0853009F461C0893075
:1026F00009F45EC0863011F485E00EC0E7E4F0E036
:102700002E0E3F1ED1018C91E9EBFFEF2E0E3F1EE6
:10271000882321F087E0D1018C931FC0F101E2846E
:10272000F38404851585C801B7012DEC3CEC4CEC15
:102730005DE30E94243488236CF4C801B7012DECBA
:102740003CEC4CEC5DEB0E940B3518161CF4D101EF
:102750001C9203C081E0F1018083D101EC91AE2F86
:10276000B0E01596AA0FBB1FAA0FBB1FA20DB31D89
:102770008D919C911197FC018491F101838BED91D6
:10278000FC913196E491D10111C089E0F10180837F
:1027900000ACF1ADE02DE491D1015396EC93539749
:1027A000D896ED91FC91D9973196E4915296EC939D
:1027B000F101E284F38404851585C801B70120E0A6
:1027C00030E040E050E00E940B35181664F424E439
:1027D00030E0220E331ED1018C91ECEBFFEF2E0E78
:1027E0003F1E8823C1F0C801B70120E030E040E07F
:1027F00050E00E94243488230CF072C024E430E0BE
:10280000220E331ED1018C91ECEBFFEF2E0E3F1EFA
:10281000882309F465C0D10152960C91529710E0BB
:10282000F6018288992412966D917D918D919C91EB
:1028300015970E94283469837A838B839C83B8011F
:10284000882777FD8095982F0E945B349B01AC010F
:10285000D10116966D917D918D919C9119970E9451
:10286000BF330E9428342B013C01F6016281738141
:10287000848195810E9428346D837E838F8398871D
:10288000B401882777FD8095982F0E945B349B01C7
:10289000AC01D60116966D917D918D919C91199701
:1028A0000E94BF330E9428345B016C018EEB93E0E1
:1028B00069817A81A20128E030E0ED80FE80650127
:1028C000E8E0AE2EB12C0E943C23882349F080E042
:1028D00090E0A0E0B0E0F10182879387A487B587FC
:1028E00027E430E0220E331ED1018C91E9EBFFEF9B
:1028F0002E0E3F1E882309F04FC0D1011A96ED908D
:10290000FD900D911C911D97C801B70120E030E0AA
:1029100040E050E00E9424348823F1F0F10162810C
:10292000738184819581A80197010E94C033D101F0
:1029300012966D937D938D939C931597C801B70163
:102940002DEC3CEC4CEC5EE30E940F35F10162870C
:10295000738784879587C4C0C801B7012DEC3CEC10
:102960004CEC5DE30E94243488230CF0B9C0C8010C
:10297000B7012DEC3CEC4CEC5DEB0E940B351816CE
:102980000CF0AEC080E090E0A0E0B0E0F101828702
:102990009387A487B587A4C0D1011E96ED90FD90C2
:1029A0000D911C915197C801B7012AE939E949E90C
:1029B0005FEB0E94243488233CF4C801B70126E66B
:1029C00036E646E65FE31DC0C801B70120E030E00F
:1029D00040E050E00E942434882344F4D801C70129
:1029E000B058F10186879787A08BB18BD1011E96D5
:1029F0006D917D918D919C91519726E636E646EA40
:102A00005FE30E940F359B01AC01F1016687778778
:102A1000808B918B66817781808591850E94C03300
:102A2000D10116966D937D938D939C931997F10127
:102A300062817381848195812285338544855585A2
:102A40000E94C033D10112966D937D938D939C9318
:102A500015971A966D917D918D919C911D9726E603
:102A600036E646E65FE30E940F35F1016287738721
:102A700084879587668177818085918520E030E025
:102A800048E252E40E940B35882354F180E090E044
:102A9000A8E2B2E4F10186839783A087B18727E497
:102AA00030E0220E331ED1011C92E9EBFFEF2E0E17
:102AB0003F1E80E090E0A0E0B0E0F10186879787BC
:102AC000A08BB18B82879387A487B58725E430E0FC
:102AD000220E331ED1011C92EBEBFFEF2E0E3F1E98
:102AE000D1011296ED90FD900D911C911597C801A2
:102AF000B70120E030E040E050E00E942434882319
:102B000054F480E090E0A0E0B0E0F1018283938390
:102B1000A483B58329C0D10153968C91C82EDD249E
:102B2000B601882777FD8095982F0E945B349B0122
:102B3000AC01C801B7010E94C03320E030E048EA90
:102B400052E40E940B3518167CF464E570E06C19B1
:102B50007D09882777FD8095982F0E945B34F101CD
:102B6000628373838483958328960FB6F894DEBFBF
:102B70000FBECDBFCF91DF911F910F91FF90EF90CE
:102B8000DF90CF90BF90AF909F908F907F906F908D
:102B90005F904F903F902F9008952F923F924F92C9
:102BA0005F926F927F928F929F92AF92BF92CF92DD
:102BB000DF92EF92FF920F931F93DF93CF93CDB7E6
:102BC000DEB72E970FB6F894DEBF0FBECDBF1C0147
:102BD0007E876D87DC019C91892F8350823008F0BD
:102BE0005CC0FB018288992412966D917D918D9134
:102BF0009C91159720E030E040E850E40E94BF33FC
:102C00000E94283469837A838B839C83D101169632
:102C10006D917D918D919C91199720E030E040E677
:102C200051E40E94BF330E9428347B018C01ED8562
:102C3000FE8562817381848195810E9428342B01F5
:102C40003C01B401882777FD8095982F0E945B3462
:102C50009B01AC01AD85BE8516966D917D918D91E0
:102C60009C9119970E94BF330E9428345B016C012C
:102C70008EEB93E069817A81A7012EE030E005E0D8
:102C800010E072016501E6E0AE2EB12C0E943C23FB
:102C9000882309F44FC195E0EBC0923019F09830C9
:102CA00009F062C0ED85FE8582889924D1011296D3
:102CB0006D917D918D919C91159720E030E040ECD5
:102CC00050E40E94BF330E9428346D837E838F833B
:102CD0009887F101668177818085918520E030E0D9
:102CE00040E451E40E94BF330E9428347B018C01F0
:102CF000AD85BE8512966D917D918D919C911597B4
:102D00000E9428342B013C01B401882777FD80956F
:102D1000982F0E945B349B01AC01ED85FE85668196
:102D20007781808591850E94BF330E9428345B01A2
:102D30006C018EEB93E06D817E81A70122E130E092
:102D400005E010E072016501B6E0AB2EB12C0E94E7
:102D50003C23882309F4EEC0F101EB5BFF4F808137
:102D60008150808398E084C0963009F0E3C0AD853F
:102D7000BE8552968C909924F10162817381848181
:102D8000958120E030E040EC50E40E94BF330E9487
:102D9000283469877A878B879C87D10116966D9135
:102DA0007D918D919C91199720E030E040EA50E4AC
:102DB0000E94BF330E9428347B018C01ED85FE8583
:102DC00062817381848195810E9428342B013C01AA
:102DD000B401882777FD8095982F0E945B349B0172
:102DE000AC01AD85BE8516966D917D918D919C91BE
:102DF00019970E94BF330E9428345B016C018EEB4F
:102E000093E069857A85A70122E130E005E010E0D2
:102E100072016501A6E0AA2EB12C0E943C238823F2
:102E200009F488C060E070E080E090E022E030E0EB
:102E300040E050E00E94A1336115710581059105C4
:102E4000B1F489E0ED85FE858083AD85BE85D89699
:102E5000ED91FC91D997E4915396EC935397D896C2
:102E6000ED91FC91D9973196E4915296EC9393E0D1
:102E7000ED85FE85E75BFF4F8081E954F040FE87DA
:102E8000ED87882339F0F101EA5BFF4F8081865F8F
:102E900080839695ED85FE85E05CFF4F8081891BE0
:102EA000808387FF05C0108282E060E00E94661088
:102EB0002D853E852C5B3F4FD9018C91A454B040A9
:102EC000BE87AD87FD01E05CFF4F882399F48081C8
:102ED00018162CF480E090E0A0E4B0EC12C080E082
:102EE00090E0A0E9B1ECED85FE8582879387A48709
:102EF000B5871CC0808118165CF480E090E0A0E4E7
:102F0000B0E4ED85FE8582879387A487B58712C0DC
:102F100080E090E0A0E9B1E4ED85FE8582879387AB
:102F2000A487B58780E090E0A0E9B1EC8687978719
:102F3000A08BB18B2E960FB6F894DEBF0FBECDBF1F
:102F4000CF91DF911F910F91FF90EF90DF90CF9085
:102F5000BF90AF909F908F907F906F905F904F90B9
:102F60003F902F900895DF93CF93CDB7DEB7C5552F
:102F7000D0400FB6F894DEBF0FBECDBF80914C0499
:102F8000843028F4823078F48130F1F503C0843045
:102F9000D9F523C08091EB018230B1F181E491E059
:102FA0000E94611231C080915504882369F190918B
:102FB00081018091D601981769F0891734F48091C6
:102FC00089018F5F8093890105C08091DE018F5F49
:102FD0008093DE011092550417C0809189018330DF
:102FE00021F08091DE01833069F48091EB01823021
:102FF00029F4109289011092DE0104C084E08093CC
:10300000EB0102C00E94930981E491E066E971E05E
:103010000E94FB1286E991E061E471E00E94FB12DC
:103020006091430170914401809145019091460166
:10303000209198013091990140919A0150919B0102
:103040000E942434882334F41092850181E0809317
:10305000DA0105C081E0809385011092DA01DE017A
:103060001196E1E4F1E085E501900D928150E1F7E0
:10307000FE01EA5BFF4F8081181634F481E491E091
:1030800066E971E00E94CD15DE011196E6E9F1E0F6
:1030900085E501900D928150E1F7FE01EA5BFF4F5B
:1030A0008081181634F486E991E061E471E00E94B1
:1030B000CD15CB5ADF4F0FB6F894DEBF0FBECDBF94
:1030C000CF91DF910895CF92DF92EF92FF920F930D
:1030D0001F93CF93DF93EC01CC5BDF4FC880C454C8
:1030E000D040CC2029F46A817B818C819D8112C0E3
:1030F0006B8970E066507040882777FD8095982F27
:103100000E945B349B01AC016A817B818C819D8133
:103110000E94BF330E942834D62EEE80FF8008859F
:1031200019856A898981E881882359F4F0E0359608
:10313000EE0FFF1FEE0FFF1FEC0FFD1FC081D181AF
:1031400009C0F0E0EE0FFF1FEE0FFF1FEC0FFD1F99
:10315000C689D78970E0882777FD8095982F0E94CF
:103160005B349B01AC01C801B7010E94BF330E94D0
:1031700028349B01AC018CE094E06D2D422F9E0120
:1031800000E0EC2C0E94751FDF91CF911F910F91F1
:10319000FF90EF90DF90CF900895FF920F931F93D1
:1031A000CF93DF9381E491E00E94631886E991E078
:1031B0000E9463186091810170E0882777FD8095F7
:1031C000982F0E945B342FE135E84BE65EE30E94C6
:1031D0000F350E942D348B019C018CE094E06EE051
:1031E00042E0202F03E00E94EF1B6091D60170E0C7
:1031F000882777FD8095982F0E945B342FE135E872
:103200004BE65EE30E940F350E942D348B019C013A
:1032100066E4601B8CE094E042E0202F03E00E9413
:10322000EF1B10E005E0F02E0CC01F9DB001112433
:103230006E5F8CE094E048E022E002E00E94EF1B29
:103240001F5F80918901181780F310E0CBEFDFEF4B
:103250000CC01C9F602D1124605B8CE094E048E062
:1032600022E002E00E94EF1B1F5F8091DE01181731
:1032700080F3DF91CF911F910F91FF9008951F93DD
:103280008EEB93E00E941C24882309F499C088ECFB
:1032900093E066E00E94EA1A882311F00E94DB099D
:1032A0001091EB01133029F40E948E0F0E94EB0E57
:1032B00087C0143089F40E94DC0F0E941B1080919B
:1032C0004D04882309F47CC080914E04882309F0C2
:1032D00077C00E941A1274C0113011F58EEB93E082
:1032E00065E777E042E00E948F25882319F081305E
:1032F00099F407C010924F041092500410934D049B
:1033000006C010924F041092500410924D04109277
:103310004E041092EB0154C083E08093EB0150C047
:103320001230B9F486E991E061E471E00E941F1265
:1033300081E491E066E971E00E941F120E94B317D8
:103340000E942C090E94CD180E94270F0E94AE09EE
:1033500037C080914D0490914E04882329F0992321
:1033600049F40E941A1206C0992321F40E94F41213
:103370000E94940B80914F04882341F080914E0469
:10338000882321F480914D048823B1F480914D0469
:10339000882321F480914E04882321F00E94B317E2
:1033A0000E942C0980914E04882331F086E991E037
:1033B00061E471E00E941F120E94CD180E94270F45
:1033C0001F9108958EEB93E00E945A280E94DB091A
:1033D0000895882319F48CB5806202C08CB58F7D66
:1033E0008CBD08959CB5937F982B9CBD08952CB5FA
:1033F000382F33702C7F322B3CBD2DB590E0959546
:1034000087959595879581702E7F822B8DBD089528
:103410008AE061E00E9435318AE061E00E94C930B3
:103420008CB580618CBD8CB580648CBD8DE061E015
:103430000E94C9308BE061E00E94C9300895FC0110
:1034400081E08083089585E070E00E9469300895EE
:103450006F927F928F929F92AF92BF92CF92DF92A4
:10346000EF92FF920F931F93CF93DF93EC0189812B
:103470009A818C0124E0000F111F2A95E1F7081BA7
:10348000190B85E10E944730BC01600F711F84E079
:10349000769567958A95E1F77A8369838881882391
:1034A00081F12E813F816217730710F4B90106C0C4
:1034B000888599858617970708F4BC0100D000D04D
:1034C00080E090E040E050E0E884F98400E010E023
:1034D000AD80BB24CC24DD246C80772488249924FF
:1034E000EDB7FEB761827282838294820E94363386
:1034F0006B830F900F900F900F9085E070E00E940B
:103500006930DF91CF911F910F91FF90EF90DF9085
:10351000CF90BF90AF909F908F907F906F900895C5
:10352000FC018CE39FE09383828384E0818381E0CC
:1035300084870895CF93DF93EC018C819D81892B43
:10354000B1F18C8590E08F719070892B69F584E1E1
:103550000E944730AA2797FDA095BA2FBC01CD0144
:103560000E945B3426EE3FE34EEC50E40E940F35A0
:103570000E942D349B01AC017B836A836115710528
:1035800089F084E08983B901FE0120E0848195817E
:103590006817790710F429830AC02F5F3296243008
:1035A000A9F702C08FEF89838C858F5F8C87DF91AD
:1035B000CF910895FC0188E0808389E0818387E0D2
:1035C000828386E0838384E0848382E0858381E153
:1035D0008683089520E0FC01E60FF11D878181308C
:1035E00009F421E0822F0895E62FF0E0423040F404
:1035F00020E0E80FF91F878181508E3F88F40FC0CB
:10360000E80FF91F87818F3F11F420E009C020E007
:1036100090E0642F70E00E949D35019709F421E04D
:10362000822F08950F931F93CF93DF93EC0110E047
:103630000FEF888162E00E94C93088810E94683162
:103640002F81892B19F42F5F2F8307C0222349F084
:103650002F3F11F41F8201C00F83888160E00E9418
:10366000C9301F5F2196173021F7DF91CF911F914D
:103670000F910895FC01742F643508F06FC047FD69
:103680006DC040330CF06AC080A1823021F5842FD8
:10369000859585958595992787FD9095462F552782
:1036A00047FD509524E530E0829FF001839FF00DA7
:1036B000929FF00D1124E40FF51FEA59FB4F808112
:1036C00090E0272F277002C0959587952A95E2F7FD
:1036D0008095817009C0833039F49485842F8627C2
:1036E000892780FF03C01FC08823E9F4E72FE595F1
:1036F000E595E59584E5E802F0011124862F9927E8
:1037000087FD9095E80FF91FEA59FB4F777081E02C
:1037100090E002C0880F991F7A95E2F7809520818A
:10372000282320830895E72FE595E595E59584E521
:10373000E802F0011124862F992787FD9095E80F64
:10374000F91FEA59FB4F777081E090E002C0880FC3
:10375000991F7A95E2F72081282B20830895FC0198
:1037600060A361A30895FC0160A341A30895EF92B3
:10377000FF920F931F93CF93DF93EC01E62EF42E6D
:10378000022F10E007C0412F4F0DCE016E2D0E9479
:103790003A1B1F5F1017BCF3DF91CF911F910F9160
:1037A000FF90EF900895EF92FF920F931F93CF93A6
:1037B000DF93EC01E62EF42E022F10E007C0612FFC
:1037C0006E0DCE014F2D0E943A1B1F5F1017BCF3E8
:1037D000DF91CF911F910F91FF90EF9008959F92ED
:1037E000AF92BF92CF92DF92EF92FF920F931F930F
:1037F000CF93DF936C01962EB42EA22EC0E0D0E0C2
:10380000E42EFF24E7FCF094112707FD10950E0D20
:103810001F1D06C0C601692D2A2D0E94D31B2196AB
:103820004B2D4C0FCE018E0D9F1D8017910794F3E9
:10383000DF91CF911F910F91FF90EF90DF90CF908C
:10384000BF90AF909F9008952F923F925F926F929A
:103850007F928F929F92AF92BF92CF92DF92EF9220
:10386000FF920F931F93DF93CF9300D000D000D02F
:10387000CDB7DEB79E838D83C62ED42EEE24E3947F
:10388000E21A8EEF289F502C1124842E8A94962EB3
:103890009A94A42EA394B62EB394F22E662423E019
:1038A000722E10E0C801847090709A838983F801A9
:1038B000E270F070FC83EB8398E0292E312C2022FB
:1038C00031220170107054C0E7FC04C0FA94F2E099
:1038D0005F0EE50C639489819A81892B71F04F2DDD
:1038E0004D0D8D819E816B2D0E943A1B6F2D6C0DAD
:1038F0008D819E814A2D0E943A1BEB81FC81EF2B2A
:1039000071F04D2D4F198D819E816B2D0E943A1BB8
:103910006F2D6C0D8D819E81482D0E943A1B2114C4
:10392000310471F06C2D6F198D819E814A2D0E949A
:103930003A1B4F2D4D0D8D819E81692D0E943A1BA2
:103940000115110571F06C2D6F198D819E81482D27
:103950000E943A1B4D2D4F198D819E81692D0E9429
:103960003A1BE70CF2E07F0E8A949A94A394B394E6
:103970006F140CF4A9CF26960FB6F894DEBF0FBED5
:10398000CDBFCF91DF911F910F91FF90EF90DF900E
:10399000CF90BF90AF909F908F907F906F905F90EF
:1039A0003F902F9008954F925F926F927F928F92E7
:1039B0009F92AF92BF92CF92DF92EF92FF920F93BE
:1039C0001F93CF93DF93EC01A62E742E9E2DFF2420
:1039D000F394F21A8EEF289F802C1124B42EBA94FF
:1039E00053E0C52ECE0CE22EDD2443E0942E10E0F1
:1039F00031E0432E512C40225122692E63940270F3
:103A0000107034C0F7FC04C0EA9482E0880EF80C11
:103A1000D3944114510489F06D2D6A0D472D4E1930
:103A20002E2D220F260DCE010E94B71B6E2D6A0D82
:103A3000CE014B2D2C2D0E94B71B0115110589F0CD
:103A40006A2D6D19472D4E192E2D220F260DCE01F0
:103A50000E94B71B6A2D6E19CE014B2D2C2D0E9492
:103A6000B71BF90C82E0980EBA94C80EDE1454F21B
:103A7000DF91CF911F910F91FF90EF90DF90CF904A
:103A8000BF90AF909F908F907F906F905F904F907E
:103A900008957F928F929F92AF92BF92CF92DF92C2
:103AA000EF92FF920F931F936C01962EA42EF22E8D
:103AB0007E2C760E1EEFE19E102D1124812E820E9B
:103AC000672D282D0E94D31BB02EBA0CBA94C601C4
:103AD000672D4B2D282D0E94D31BAE0C100FC60155
:103AE000692D4A2D212F0E94B71BF90CFA94C601AB
:103AF0006F2D4A2D212F0E94B71BC601672D4A2D1D
:103B00002E2D01E00E94241CFE18C6016F2D4A2DA7
:103B10002E2D02E00E94241CBE18C6016F2D4B2DD5
:103B20002E2D04E00E94241CC601672D4B2D2E2D46
:103B300008E00E94241C1F910F91FF90EF90DF90EE
:103B4000CF90BF90AF909F908F907F9008958F926D
:103B50009F92AF92BF92CF92DF92EF92FF920F931C
:103B60001F936C01162FA42E922EF02EBE2C8E2C9D
:103B7000860E2EEFE29EE02C11242E2D290D682DAD
:103B80000E94EF1BAB0CFA94FE0C1150190D1B197F
:103B9000C601612F4A2D2B2D01E0EF2C0E94D31C72
:103BA000C601682D4A2D2B2D02E00E94D31C1F91C7
:103BB0000F91FF90EF90DF90CF90BF90AF909F90CC
:103BC0008F9008952F923F924F925F926F927F92C3
:103BD0008F929F92AF92BF92CF92DF92EF92FF921D
:103BE0000F931F93DF93CF9300D000D0CDB7DEB7F4
:103BF0004C01D62E142FF90184913196949131976E
:103C0000D40190966C90B3E5B6170CF457C1482FC9
:103C1000552747FD5095A62EBB24A7FCB0942A013A
:103C20004A0C5B1C141415040CF048C110330CF042
:103C300045C1092F212F332727FD3095892F99273B
:103C400087FD9095820F931F181619060CF036C148
:103C500062E0E62EF12CEE0EFF1ECA01079668E028
:103C600070E00E94B135762E17FF0EC0010F862F2F
:103C700090E0FC01E29FC001E39F900DF29F900D48
:103C80001124E81AF90A10E0802F992787FD9095F2
:103C9000212F332727FD3095820F931FC19714F0F2
:103CA00000E3011BD7FCDD24C2018535910514F02A
:103CB00084E590E0C82ED4011C969C909126ED2DB1
:103CC000F0E0CF018A199B09AC014770507020E8E1
:103CD00030E002C0359527954A95E2F7B22E68E0AC
:103CE00070E00E94B135AB014E0D5F1D5C834B83CC
:103CF000212F277081E090E0682F01C0660F2A9580
:103D0000EAF715951595159584E51802A00111247B
:103D10004E0F5F1F4A595B4F8824202E332427FC07
:103D20003094472C5524C4C0EB81FC812491F1E0F0
:103D30006F1629F5AB81BC817B2D022F7A011D2DD9
:103D40001BC0872F90E0202F30E082239323892B04
:103D500021F0F7018081862B8083872F90E0959555
:103D60008795782F882321F41196FD01049170E83E
:103D70001F5F0894E11CF11C1C1518F38DC0662010
:103D800059F5F62EF094AB81BC817B2D022F5A831E
:103D900049831D2D1EC0872F90E0202F30E0822305
:103DA0009323892B29F0E981FA8180818F218083F7
:103DB000872F90E095958795782F882321F4119689
:103DC000FD01049170E81F5F89819A8101969A83B1
:103DD00089831C1500F360C093E0691639F0AB814C
:103DE000BC817B2D022F7A011D2D54C0A62EA094DC
:103DF000AB81BC817B2D022F5A8349831D2DE92C79
:103E0000FF2428C0872F90E0202F30E082239323C7
:103E1000892B79F0812F90E08E259F25E981FA8109
:103E2000908180FF02C0962B03C09A21E981FA811C
:103E30009083872F90E095958795782F882321F49C
:103E40001196FD01049170E81F5F89819A810196A6
:103E50009A8389831C15B0F291E099261DC0872FA3
:103E600090E0202F30E082239323892B21F0F7016B
:103E7000808186278083872F90E095958795782F7E
:103E8000882321F41196FD01049170E81F5F0894C6
:103E9000E11CF11C1C1518F3660F19F44C5A5F4F06
:103EA00061E083948B819C81840D951D9C838B8321
:103EB000882D90E0821593050CF436CF0F900F906B
:103EC0000F900F90CF91DF911F910F91FF90EF9086
:103ED000DF90CF90BF90AF909F908F907F906F902A
:103EE0005F904F903F902F9008952F923F924F9266
:103EF0005F926F927F928F929F92AF92BF92CF927A
:103F0000DF92EF92FF920F931F93DF93CF93CDB782
:103F1000DEB728970FB6F894DEBF0FBECDBF1C01E9
:103F20006A834B8369019E2C002329F4EE2019F447
:103F30000E94E21D83C0F60174900894C11CD11C3C
:103F4000F60184900894C108D108872D90E0079667
:103F500023E0959587952A95E1F703700983672CEF
:103F60006A94A62C00E0282F332727FD30953D8347
:103F70002C83382D31503E835EC0802F877090E8AF
:103F8000492E512C02C0559447948A95E2F7802F10
:103F9000859585958595E82FFF27E7FDF095329665
:103FA000EC0DFD1DF887EF83BE80FF243FC0EF813D
:103FB000F885849190E084219521892B69F1F9811C
:103FC000F13051F0F13028F0F23049F0F33061F483
:103FD00009C0102FEF2C08C0EA2C1F2D05C01A2D88
:103FE000EB2C02C01B2DE02E992069F023E09222D9
:103FF000892D90FE03C0362D311B132F81FF03C086
:10400000882D8E19E82E9A81190FEB81EE0EC101D1
:10401000612F4E2D0E943A1BF3942F8138858C819D
:104020009D81280F391F38872F83BA94F81409F01F
:10403000BECF0F5FAA94071509F09FCF28960FB641
:10404000F894DEBF0FBECDBFCF91DF911F910F91CE
:10405000FF90EF90DF90CF90BF90AF909F908F90A8
:104060007F906F905F904F903F902F900895DC016C
:10407000FB0184918F5F14968C93149731968491F1
:104080008F5F15968C93159731965F96FC93EE9300
:104090005E9708953F924F925F926F927F928F92B8
:1040A0009F92AF92BF92CF92DF92EF92FF920F93C7
:1040B0001F93CF93DF93EC01862EA42E422F102F57
:1040C00038A023E526170CF4ABC03FE23A150CF4F8
:1040D000A7C0C02EDD248C8190E001979C01C29E78
:1040E000C001C39E900DD29E900D1124262F332720
:1040F00027FD3095820F931F181619060CF090C0FB
:104100008D8190E09C01C29EC001C39E900DD29E05
:10411000900D11242A2D332727FD3095820F931FF0
:10412000181619060CF07CC09924442E55246DC035
:104130009C01215030404217530711F460E00EC03B
:10414000429EC001439E900D529E900D1124840FFB
:10415000951FEE8DFF8DE80FF91F64914C9DC001F6
:104160004D9D900D5C9D900D1124682C680EBB2414
:10417000792C780C3FC0E62EFF2460FF19C0113067
:1041800039F44B2D4A0DCE01672D0E943A1B2EC0EB
:104190002C9DC0012D9D900D3C9D900D11244A2D0C
:1041A000480FCE01662D212F012F0E94EF1B1EC04C
:1041B00099A188A19817D1F098A3113039F44B2D0B
:1041C0004A0DCE01672D0E943A1B0FC02C9DC001E5
:1041D0002D9D900D3C9D900D11244A2D480FCE0130
:1041E000662D212F012F0E94EF1B38A2F594E79432
:1041F0006E2DB3942B2D332727FD30958D8190E0C4
:10420000281739070CF4B7CF9394492D552747FD4C
:1042100050958C8190E0481759070CF489CF38A24B
:10422000DF91CF911F910F91FF90EF90DF90CF9092
:10423000BF90AF909F908F907F906F905F904F90C6
:104240003F9008950F93CF93DF93EC01262F6A30B0
:1042500049F48D819885899F802D11249A85980F26
:104260009A8726C06D3029F169854A8508850E94A4
:104270004A209C816885969F402D11248985480F8E
:1042800049878F818823A9F0552747FD5095699F5D
:104290009001112484E590E0821B930B841795070D
:1042A00044F49D81699F902D11248A85890F8A8706
:1042B000198681E090E0DF91CF910F9108951F93CF
:1042C000CF93DF93EC01162FF8948F8560E00E9466
:1042D0003531888918161CF460E00E9435311EBD06
:1042E0000DB407FEFDCF8EB5888918161CF461E069
:1042F0000E9435317894DF91CF911F910895FF92FC
:104300000F931F93CF93DF93EC018C858F5F8C8786
:10431000FF2400E010E06F2D6064CE010E945F2159
:10432000CE0160E80E945F218F8561E00E943531F7
:10433000888918161CF460E00E943531F801EA59AA
:10434000FB4F90E080818EBD0DB407FEFDCF8EB592
:104350009F5F31969435B1F7888918161CF461E097
:104360000E943531F3940C5A1F4F86E0F81699F6E7
:10437000CE0160E40E945F21DF91CF911F910F91E8
:10438000FF900895CF93DF93DC0188EF91E0E6E69C
:10439000F4E0EF019C01199221503040E1F71996A9
:1043A0001C9219971A961C92DF91CF910895EF9263
:1043B0000F93CF93DF93EC014E876D872F87E98AA8
:1043C000088B81E0888788A319A28F83CE0167ECD0
:1043D0007CE00E9437200E94081A81E00E94E919BF
:1043E00085E00E94F7198CE00E94F2198E8561E049
:1043F0000E94C9308D8561E00E94C9308F8561E0DF
:104400000E94C930898918161CF461E00E94C930E5
:10441000888918161CF461E00E94C9308989181631
:104420006CF460E00E9435316AE070E080E090E07A
:104430000E94E62F898961E00E943531ED852E2F9B
:10444000332727FD3095F901ED5FFF4EE491F0E051
:10445000EE0FFF1FE151F04F859194919D8B8C8B56
:10446000295E3F4EF90184918B8FEE852E2F3327E5
:1044700027FD3095F901ED5FFF4EE491F0E0EE0F7E
:10448000FF1FE151F04F859194919B8B8A8B295EA0
:104490003F4EF90184918A8FE8892E2F332727FD1B
:1044A0003095F901ED5FFF4EE491F0E0EE0FFF1F54
:1044B000E151F04F859194919F8B8E8B295E3F4EF9
:1044C000F90184918C8FEF852E2F332727FD3095AE
:1044D000F901ED5FFF4EE491F0E0EE0FFF1FE151B7
:1044E000F04F85919491998F888F295E3F4EF90105
:1044F00084918D8FCE0161E20E945F21CE0164E143
:104500000E945F218B8587FF02C08FE78B876B85B9
:104510006068CE010E945F21CE0160E20E945F21AF
:10452000CE016CE00E945F21CE010E947F21DF91CD
:10453000CF910F91EF900895FC01EC57FF4F6193DD
:104540007193445F40830895CF93DF93DC01E0E8EB
:10455000F7E785919491ED01C75ADF4FAD014059BE
:104560005F4F8150904C09F04EC0E6E9F7E7E491C7
:10457000E883E7E9F7E7E4911496EC931497E8E908
:10458000F7E7E4911596EC931597E9E9F7E785913C
:10459000949117969C938E931697EBE9F7E7859184
:1045A000949119969C938E931897EDE9F7E7E4910F
:1045B0009B96EC939B97EEE9F7E7E4919A96EC9340
:1045C0009A97EFE9F7E7E491EA01E883E0EAF7E791
:1045D000859194915D969C938E935C97E2EAF7E7C0
:1045E000859194915F969C938E935E97E4EAF7E7AA
:1045F0008591949191969C938E939097E6EAF7E734
:104600008591949132C08CE3888314961C92149700
:104610002FEF15962C93159780E293E017969C93B5
:104620008E93169784ED93E019969C938E9318972A
:1046300081E09B968C939B979A968C939A97FA011C
:1046400020838CEA9DE05D969C938E935C978EED23
:104650009DE05F969C938E935E9784E79EE0919693
:104660009C938E9390978CE39FE093969C938E936C
:104670009297DF91CF9108958F929F92AF92BF92C0
:10468000CF92DF92EF92FF920F931F93DF93CF931E
:10469000CDB7DEB7260F371FE216F30694F4AE0C43
:1046A000BF1C6A157B056CF4040F151FC016D106DC
:1046B00044F480E08C0C9D1C481559051CF481E0E5
:1046C00001C080E0CF91DF911F910F91FF90EF909B
:1046D000DF90CF90BF90AF909F908F900895EF9212
:1046E000FF920F931F93CF93DF937C018C01025BAA
:1046F0001F4FC8010E94C221C8016EE67EE00E94E1
:10470000D131C8010E947F2183E00E94F71986E31E
:1047100091E0EEEFFFE3099584E590E0E80EF91EE5
:10472000F7011082C80169E47EE00E941C32C801D2
:104730000E947F21E701CA54D040CE010E94121B83
:10474000CE0164E00E94EA1A882339F462E370E043
:1047500080E090E00E94E62FF0CFDF91CF911F9193
:104760000F91FF90EF900895AF92BF92CF92DF929A
:10477000EF92FF920F931F93CF93DF93EC01CA57F1
:10478000DF4F8881C658D040882309F44AC08C3056
:1047900010F010E002C01CE0181BCA5ADF4F81E085
:1047A0008883C655D0406EE4C62ED12CCC0EDD1EBB
:1047B000C60160E00E94AF1B53E5A52EB12CAC0EE4
:1047C000BD1EF50100814DE2F42E4F2D401B410F1F
:1047D0000D5FC60160E024E533E0E32E0E94A71DD3
:1047E000C60161E00E94AF1BF5010081F01AF10ED5
:1047F0000D5FC60160E04F2D24E50E94491DC95A96
:10480000DF4F84E08993F5018081181B115D1883C7
:10481000AC9669917991C6010E94D131888181500D
:104820008883DF91CF911F910F91FF90EF90DF90E0
:10483000CF90BF90AF900895AF92BF92CF92DF928A
:10484000EF92FF920F931F93CF93DF93EC01E0E879
:10485000AE2EB12CA80EB91EF501E080F1800281C8
:1048600013810E94B22FE61AF70A080B190B7FE793
:10487000C72ED12CCC0EDD1EF601808190E0A0E089
:10488000B0E08E159F05A007B10708F081C08E012A
:1048900005581F4FF80180819181A281B381009753
:1048A000A105B10509F474C00E94B22FF601208160
:1048B000620F711D811D911DF501608371838283DB
:1048C0009383FE01EF58FF4F80819181A281B381D4
:1048D0000196A11DB11D80839183A283B383F8014A
:1048E00010821182128213820E94C02FC958DF4F9A
:1048F000688379838A839B83C757D040CE010E9407
:10490000281ACE010A960E94121BCE0148960E94D8
:104910009A1A81E032C08E010B5D1F4FC8010E94C0
:10492000AD29C8010E94242AC8010E94072BCE018C
:104930000E94B423CE010E94D5248E01025B1F4F3A
:10494000C8010E947F21CC5ADF4F8881C455D040D6
:10495000882319F4C8010E94C2210E94C02FC558A3
:10496000DF4F688379838A839B83249728813981E9
:10497000621B730B7A936A9380E0DF91CF911F9152
:104980000F91FF90EF90DF90CF90BF90AF90089580
:10499000C558DF4F88819981AA81BB81CB57D04010
:1049A0000097A105B10541F7B6CFBF92CF92DF9234
:1049B000EF92FF920F931F93CF93DF93EC018C8DB7
:1049C0009D8D892B09F4A1C08E01025B1F4FC80188
:1049D00061E040E00E94B31BFE01E95AFF4FCE5A4E
:1049E000DF4F85E59881891B808326961882C855FC
:1049F000D040698D613009F469C0613028F0888D3C
:104A0000653008F07CC076C0CE0185960E945F2993
:104A1000CA5ADF4F81E08883C655D040C80167EC91
:104A20007CE00E9437201D8E1C8ECC5ADF4F1882EE
:104A3000C455D040AAE0CA2ED12CCC0EDD1EBC2E0F
:104A4000ED2EF8EAFF2ECE010E941C248823D9F314
:104A5000C80166EB7EE00E94D1316A8D7B8DC80172
:104A60004AE050E00E94BF32C80161EA7EE00E9445
:104A7000D1316F2D62956F70C80170E04AE050E04F
:104A80000E941033C80166E97EE00E94D131C60160
:104A900064E00E94EA1A8823C1F5FA94A1F68B2DEE
:104AA0009E2D60E00E94231A83B7817F846083BFBC
:104AB00083B7816083BF83B7816083BF889583B7E5
:104AC0008E7F83BF83B78E7F83BFBDCFCF58DF4F2D
:104AD00088819981AA81BB818F709070A070B0701D
:104AE0000897A105B10518F4C80167E00CC0C8011A
:104AF00068E709C0882349F06B5FC80104C08823B8
:104B000021F0C8016FE20E94F431DF91CF911F9133
:104B10000F91FF90EF90DF90CF90BF9008952F926C
:104B20003F924F925F926F927F928F929F92AF923D
:104B3000BF92CF92DF92EF92FF920F931F93DF937A
:104B4000CF93CDB7DEB762970FB6F894DEBF0FBE36
:104B5000CDBF6C016C837D834B8324E530E0C20EB6
:104B6000D31EF60110822CEA3FEFC20ED31E3AE0AC
:104B7000A32EB12CAC0CBD1C25E2222E312C2C0C0A
:104B80003D1C9EE4492E512C4C0C5D1C10E080E332
:104B9000782E66241A823FEF3983A601495A5F4F67
:104BA0005F834E83C601885A9F4F99878887F60195
:104BB000EA5AFF4FFB87EA8796012B5A3F4F3D8702
:104BC0002C8703E5802E912C8C0C9D1C5B81452F3E
:104BD00050E05F874E878B818150888BC6010E9491
:104BE0001C248823D9F3C50164E00E94EA1A8823B3
:104BF00069F4C50165E00E94EA1A882339F4C50109
:104C000066E00E94EA1A882309F4D3C0F401008107
:104C1000C50164E00E94EA1A882329F0C1010E94BC
:104C2000642B1983CBC0C1010E946A2BC7C0C50188
:104C300063E044E00E94F41A882321F01F5FC10161
:104C40000E94702BC50161E044E00E94F41A8823A1
:104C500021F01150C1010E94702B812F992787FDEF
:104C600090952E853F858217930711F410E002C0BE
:104C700017FD1889F4018081819F902D11248C5F8C
:104C8000682E691A28C0872D992787FD9095262DB3
:104C9000332727FD3095821B930B0297D4F489812B
:104CA00062960FB6F894DEBF0FBECDBFCF91DF91F5
:104CB0001F910F91FF90EF90DF90CF90BF90AF903A
:104CC0009F908F907F906F905F904F903F902F902C
:104CD0000895F1E0FA83862D992787FD9095272D79
:104CE000332727FD3095820F931F62E070E00E940A
:104CF000B135762EEE81FF811082E885F9856083DB
:104D000021E0EA85FB852083EC85FD8510822C81DE
:104D10003D81C9019A8B898B00E0E12EFF24E7FCDD
:104D2000F09420C0802F90E08E159F0569F423E059
:104D3000EE81FF812083F40180818E9D802D1124DE
:104D4000870DE885F9858083E989FA8965917491F1
:104D5000C2010E941C320F5F29893A892E5F3F4FA2
:104D60003A8B298B3B810317E8F2C20160E00E9475
:104D7000AF1BF40140814E9D402D11244150470D41
:104D8000C20160E024E50E94D31BC20161E00E94E1
:104D9000AF1BF40100810E9D402D11244250470DA0
:104DA0000D5FC20160E024E5B3E0EB2E0E94491DD7
:104DB00015CFFA81FF2309F066CF39CF802F90E01D
:104DC000909581959F4F2E853F85AC01249FC00112
:104DD000259F900D349F900D1124AEEF6A2E680E22
:104DE00052CF2F923F924F925F926F927F928F920B
:104DF0009F92AF92BF92CF92DF92EF92FF920F936A
:104E00001F93DF93CF93CDB7DEB72B970FB6F894F0
:104E1000DEBF0FBECDBF9B878A877A8369835C83A1
:104E20004B838C0100591F4FF8018081882309F4BE
:104E300022C18A859B858A5A9F4F9B878A8781E0FA
:104E4000EA85FB85808312921292E455F040FB873D
:104E5000EA87108E4EE4E42EF12CEE0EFF1EC70101
:104E600061E00E94AF1B3AE0232E312C8A859B859E
:104E7000280E391E25E2622E712C680E791EE981FA
:104E8000FA81F491FD83B7E58B2E912C880E991E43
:104E9000A8E5CA2ED12CC80ED91EF2E54F2E512CF2
:104EA000480E591E8D5A9F4F9F838E83E1E7AE2E89
:104EB000B12C8A859B85A80EB91E198708878A851B
:104EC0009B850E941C248823D1F39D81992311F492
:104ED00010E003C0EE81FF811081C70160E040E077
:104EE00024EF3EE00E94E21D8B819C81892B41F0E2
:104EF000145FC70160E0412F2B813C810E94E21DBD
:104F0000F40110828CE0F6018083C70169817A8107
:104F10000E94D131F201208130E0C901880F991F30
:104F2000820F931F909581959F4F8D5AF401808336
:104F3000EE81FF81208130E0C901880F991F820F27
:104F4000931F909581959F4F835DF6018083F501B6
:104F5000808184FF04C0C70164E77FE003C0C7010C
:104F600060E77FE00E941C32F201208130E0C9013D
:104F7000880F991F820F931F909581959F4F8D5A8F
:104F8000F4018083F60180818F5F8083EA85FB8551
:104F900082A5882321F0C7016CE67FE003C0C7012A
:104FA00068E67FE00E941C32F201808190E09C0163
:104FB000220F331F280F391F309521953F4F2D5A4F
:104FC000F4012083F60180818F5F8083C70164E64E
:104FD0007FE00E941C32C10165E00E94EA1A88232A
:104FE00051F0EA85FB8562A56F5FC3010E94762BB5
:104FF000C3010E94702BC10164E00E94EA1A882359
:1050000099F4E885F9856081262F30E040E050E092
:10501000F50180819181A281B38182179307A40752
:10502000B50708F16F3FF9F08A859B8580599F4F3E
:105030009B878A878FEFEA85FB858083E057F04066
:10504000FB87EA87C30160E00E945429C3010E94E4
:10505000642B81E0EA85FB85808F0DC08A859B8566
:105060000E946F232CCFC10166E00E94EA1A8823B8
:1050700009F425CFF3CF2B960FB6F894DEBF0FBE01
:10508000CDBFCF91DF911F910F91FF90EF90DF90F7
:10509000CF90BF90AF909F908F907F906F905F90D8
:1050A0004F903F902F900895AB0169E77FE00E94F9
:1050B000F1260895AF92BF92CF92DF92EF920F93B5
:1050C000CF93DF936C018FE790E0C80ED91E82E387
:1050D000F601808381E090E0A0E0B0E0B293A2937B
:1050E000929382936F0185EF9FEFC80ED91E8FEFC9
:1050F000F601808380E99FEFC80ED91EC6010E9489
:10510000A422C6010E941F1AC6016FEF0E94231A33
:105110006AE0A62EB12CAC0CBD1CC5010E94DA1AA7
:10512000C5010E94121BC60148960E94901AC60132
:10513000825B9F4F6DE04BE020E10FE05EE0E52EEB
:105140000E94D721E601A596CE010E94832BC501BE
:1051500065E00E94EA1A882329F0CE0160E00E94EF
:10516000762B06C0CE016AE77FE040E00E9463290B
:10517000DF91CF910F91EF90DF90CF90BF90AF90E4
:1051800008950F93DC01002309F069C0623009F42F
:1051900043C0633030F4662359F0613009F05FC0DA
:1051A0000DC0633009F444C0643009F058C04CC0ED
:1051B0004B3008F04AE056964C9351C0842F90E053
:1051C000880F991F1F962D913C915097280F391FDA
:1051D000F9018591949190969C938E935F97FC0131
:1051E0004591549114968C911497849F602D1124AD
:1051F00091966C939197252F3327862F90E028174F
:10520000390708F4652F14968C911497689F802DA8
:10521000112492968C9323C014968C911497489FD6
:10522000802D112459968C9359975A962C9317C018
:1052300014968C911497489F802D11245B968C9323
:105240005B975C962C930BC014968C911497489F97
:10525000802D11245D968C935D975E962C930F9113
:105260000895FC01222371F4648B8481489F802D72
:105270001124858B15A214A213A281E0878B809341
:105280006706108E0895FC01662369F4178A158A53
:1052900014A213A2108E10926A0610926906109240
:1052A00067061092B4000895CF93DF93EC01662354
:1052B00019F40E9443291982DF91CF91089560E08B
:1052C0000E94542908950F931F93CF93DF93EC010D
:1052D0008B01442371F460E00E9454291E870D87DE
:1052E0001B8A1A8A81E0898389E08E8B198E1B8E36
:1052F0001D8EDF91CF911F910F910895CF93DF9372
:10530000EC01662339F58881882321F1898188237E
:1053100009F5898590E0880F991FEF81F885E80FDE
:10532000F91F859194912FEF8F3F920711F4188206
:1053300011C09C8790E0880F991FEA85FB85E80FD4
:10534000F91F65917491CE0140E00E94632989851F
:105350008F5F8987DF91CF91089560E00E947E2959
:1053600008950F93CF93DF93EC01662309F068C093
:105370008981882309F464C08D89882309F060C07D
:10538000EA89FB89EE0FFF1F4D855E85E40FF51F4F
:10539000259134912115310509F040C0898981306A
:1053A00031F41B8A1A8AFA012591349137C0198287
:1053B0008881882379F0CE0160E00E947E298A8965
:1053C0009B89880F991FED85FE85E80FF91F2591B0
:1053D000349124C0CE0160E00E94432931C0E6E050
:1053E00036952795EA95E1F76F70422F4F7175E07A
:1053F000369527957A95E1F72051CE0100E00E947D
:10540000C1288A899B8901969B8B8A8B880F991F5B
:10541000ED85FE85E80FF91F25913491B901769548
:1054200067957695679520FDDACF6F73432FCE0190
:1054300020E00E9431298A899B8901969B8B8A8B67
:10544000DF91CF910F91089560E00E94B1290895F6
:10545000CF93DF93EC01662309F0D6C08F898823B0
:1054600009F4D2C08D89882321F4CE010E944329FA
:10547000CBC081508D8B8DA1882309F03BC08BA1BF
:105480009CA10196880F991FEF8DF8A1E80FF91FD5
:1054900085919491282F27702EA3AC0163E0569537
:1054A00047956A95E1F79A0136952795892F9927AF
:1054B000869586958FA32F738C81289F202D11248C
:1054C0002DA3417040936B068BA19CA101969CA3D8
:1054D0008BA329A130E08217930760F08AA188236B
:1054E00029F0281B31093CA32BA304C0CE0160E0A6
:1054F0000E9443298DA181508DA3988D9F5F988F25
:105500002FA18C89280F8C85280F2A836B8D662309
:1055100069F0892F992787FD909570E00E94B13539
:105520008C8D869F802D1124820F8A838A8190E042
:10553000CB966BE370E00E94B1358A832E892B8372
:10554000698D662379F0888D772767FD7095992797
:1055500087FD90950E94B1358A8D869F802D1124FC
:10556000820F8B836D8D662399F0888D992787FD37
:10557000909570E00E94B135CB0162E070E00E942E
:10558000B1359E8D899F802D11249B81890F8B833E
:105590008B818A300CF089E087FD80E08B838C89D9
:1055A0008F3309F41B82F894EA81F0E0E256F04F61
:1055B000E491E09368062D8130E08B81992787FD87
:1055C0009095A901489F9001499F300D589F300D3B
:1055D000112488A590E0A901489F9001499F300DB2
:1055E000589F300D11248EA1992787FD9095AC010D
:1055F000249FC001259F900D349F900D112480930E
:10560000690680936A067894DF91CF91089560E0EF
:105610000E94282A089560916906662381F180918D
:1056200066068F5F8093660690916806891738F149
:1056300030E080916706882309F431E030936706F3
:105640001092660680916B068823A9F080918B03E7
:1056500023E4829FC0011124895B80938B0390E037
:1056600070E00E949D3580936A0605C080916A06AD
:105670008093B40008953323C9F780E0F9CF0895EB
:105680001F920F920FB60F9211242F933F934F93B7
:105690005F936F937F938F939F93AF93BF93EF939A
:1056A000FF930E940B2BFF91EF91BF91AF919F91C0
:1056B0008F917F916F915F914F913F912F910F90BB
:1056C0000FBE0F901F90189566E97FE040E00E94A2
:1056D000632908956EE87FE040E00E946329089501
:1056E00068E87FE040E00E9463290895FC01862F6E
:1056F000668170E06F5F7F4F992787FD90950E94CC
:10570000B135858308950F93FC0181E0848384E0A3
:1057100080A789ED9FE0908B8787CF0161E040E013
:1057200020E000E00E94C12883E061E070E00E9478
:105730006930E1EBF0E08081887F81608083F894BC
:1057400010928000E1E8F0E0108210928500109243
:10575000840088E191E090938900809388008081A3
:1057600088608083808181608083EFE6F0E08081C3
:105770008260808378940F91089581E08093B106D0
:1057800060938E061092AF061092B0060895209195
:105790008D0630E080918C06281B3109C9010895DF
:1057A00040918C0680918D06481718F02FEF3FEF3F
:1057B0000AC0E42FF0E0E459F94F8081282F30E04F
:1057C0004F5F40938C06C9010895E0918C0680914B
:1057D0008D06E81718F0EFEFFFEF06C0F0E0E45990
:1057E000F94F8081E82FF0E0CF0108950895AC01D2
:1057F0002091B4063091B50621153105E1F0909164
:105800008C0680918D069817B0F090E008C0FA01E0
:10581000EA0FFB1F8081A459B94F8C939F5FA92F7A
:10582000B0E0A617B7079CF310928C0660938D0624
:10583000CB01F90109950895E091B206F091B30604
:10584000309729F01092AF061092B006099508958E
:105850007093B5066093B40608957093B306609391
:10586000B20608951092B9061092B80688EE93E039
:10587000A0E0B0E08093BA069093BB06A093BC066C
:10588000B093BD0681EB93E09093B7068093B60684
:105890000895CF92DF92EF92FF920F931F93CF93D1
:1058A000DF937C016B018A018091B1068823A1F00E
:1058B000C0E0D0E00DC0D701ED91FC91D601AC0F56
:1058C000BD1F0190F081E02DC7016C9109952196D3
:1058D000C017D10780F304C0CB01642F0E94962D1E
:1058E000C801DF91CF911F910F91FF90EF90DF9052
:1058F000CF900895DF93CF930F92CDB7DEB7FC0121
:1059000069838091B1068823C9F08091B006803206
:1059100038F081E090E09383828320E030E015C08E
:105920008091AF06E82FF0E0E157F94F998190831D
:105930008F5F8093AF068093B00605C0CE010196BD
:1059400061E00E94962D21E030E0C9010F90CF91D7
:10595000DF9108950F93062F80918E066FE876E011
:105960004091B00621E00E94412D1092AF061092A6
:10597000B0061092B1060F91089561E00E94AA2C22
:105980000895413208F040E2862F6CE676E00E94EE
:10599000F82C10928C0680938D06089521E00E94C9
:1059A000C12C089510928C0610928D061092AF06AD
:1059B0001092B0060E944C2F08950F931F938C01F4
:1059C000862F0E94F42C8CE19CE20E94B62D87EF7A
:1059D0009BE20E94B12DC8010E94D22C1F910F9111
:1059E00008950E94DD2C0895880F8093BA000895D1
:1059F000382F413210F040E042C08091C206882327
:105A0000E1F791E09093C2062093C4068FEF809354
:105A10002F071092EA0641504093EB064F5F909398
:105A2000C3068091C306330F832B8093C3068091F6
:105A3000C506813041F41092C5068091C30680935B
:105A4000BB0085EC01C085EE8093BC008091C2064E
:105A50008130E1F38091EA06841710F44091EA0660
:105A600020E030E00AC0FB01E20FF31FD901A6538A
:105A7000B94F8C9180832F5F3F4F2417A0F3842F61
:105A800008950F931F93582F122F413210F081E089
:105A90004AC08091C2068823E1F782E08093C20663
:105AA0000093C4068FEF80932F071092EA0640936D
:105AB000EB06AAECB6E0FB0102C081918D938E2F1C
:105AC000861B8417D0F31092C3068091C306550F2E
:105AD000852B8093C3068091C506813041F41092D6
